{
  "contractName": "NFT",
  "abi": [
    {
      "anonymous": false,
      "inputs": [
        {
          "indexed": true,
          "internalType": "address",
          "name": "owner",
          "type": "address"
        },
        {
          "indexed": true,
          "internalType": "address",
          "name": "approved",
          "type": "address"
        },
        {
          "indexed": true,
          "internalType": "uint256",
          "name": "tokenId",
          "type": "uint256"
        }
      ],
      "name": "Approval",
      "type": "event"
    },
    {
      "anonymous": false,
      "inputs": [
        {
          "indexed": true,
          "internalType": "address",
          "name": "owner",
          "type": "address"
        },
        {
          "indexed": true,
          "internalType": "address",
          "name": "operator",
          "type": "address"
        },
        {
          "indexed": false,
          "internalType": "bool",
          "name": "approved",
          "type": "bool"
        }
      ],
      "name": "ApprovalForAll",
      "type": "event"
    },
    {
      "anonymous": false,
      "inputs": [
        {
          "indexed": false,
          "internalType": "address",
          "name": "author",
          "type": "address"
        },
        {
          "indexed": false,
          "internalType": "uint256",
          "name": "tokenId",
          "type": "uint256"
        }
      ],
      "name": "NewTokenAppear",
      "type": "event"
    },
    {
      "anonymous": false,
      "inputs": [
        {
          "indexed": true,
          "internalType": "address",
          "name": "previousOwner",
          "type": "address"
        },
        {
          "indexed": true,
          "internalType": "address",
          "name": "newOwner",
          "type": "address"
        }
      ],
      "name": "OwnershipTransferred",
      "type": "event"
    },
    {
      "anonymous": false,
      "inputs": [
        {
          "indexed": false,
          "internalType": "uint256",
          "name": "tokenId",
          "type": "uint256"
        },
        {
          "indexed": false,
          "internalType": "uint256",
          "name": "amount",
          "type": "uint256"
        }
      ],
      "name": "TokenAddedToSale",
      "type": "event"
    },
    {
      "anonymous": false,
      "inputs": [
        {
          "indexed": false,
          "internalType": "uint256",
          "name": "tokenId",
          "type": "uint256"
        }
      ],
      "name": "TokenRemovedFromSale",
      "type": "event"
    },
    {
      "anonymous": false,
      "inputs": [
        {
          "indexed": true,
          "internalType": "address",
          "name": "from",
          "type": "address"
        },
        {
          "indexed": true,
          "internalType": "address",
          "name": "to",
          "type": "address"
        },
        {
          "indexed": true,
          "internalType": "uint256",
          "name": "tokenId",
          "type": "uint256"
        }
      ],
      "name": "Transfer",
      "type": "event"
    },
    {
      "anonymous": false,
      "inputs": [
        {
          "indexed": true,
          "internalType": "address",
          "name": "from",
          "type": "address"
        },
        {
          "indexed": true,
          "internalType": "address",
          "name": "to",
          "type": "address"
        },
        {
          "indexed": true,
          "internalType": "uint256",
          "name": "tokenId",
          "type": "uint256"
        }
      ],
      "name": "TransferAuthorship",
      "type": "event"
    },
    {
      "inputs": [
        {
          "internalType": "address",
          "name": "to",
          "type": "address"
        },
        {
          "internalType": "uint256",
          "name": "tokenId",
          "type": "uint256"
        }
      ],
      "name": "approve",
      "outputs": [],
      "stateMutability": "nonpayable",
      "type": "function"
    },
    {
      "inputs": [
        {
          "internalType": "uint256",
          "name": "tokenId",
          "type": "uint256"
        }
      ],
      "name": "authorOf",
      "outputs": [
        {
          "internalType": "address",
          "name": "",
          "type": "address"
        }
      ],
      "stateMutability": "view",
      "type": "function"
    },
    {
      "inputs": [
        {
          "internalType": "address",
          "name": "owner",
          "type": "address"
        }
      ],
      "name": "balanceOf",
      "outputs": [
        {
          "internalType": "uint256",
          "name": "",
          "type": "uint256"
        }
      ],
      "stateMutability": "view",
      "type": "function"
    },
    {
      "inputs": [
        {
          "internalType": "uint256",
          "name": "tokenId",
          "type": "uint256"
        }
      ],
      "name": "getApproved",
      "outputs": [
        {
          "internalType": "address",
          "name": "",
          "type": "address"
        }
      ],
      "stateMutability": "view",
      "type": "function"
    },
    {
      "inputs": [
        {
          "internalType": "address",
          "name": "owner",
          "type": "address"
        },
        {
          "internalType": "address",
          "name": "operator",
          "type": "address"
        }
      ],
      "name": "isApprovedForAll",
      "outputs": [
        {
          "internalType": "bool",
          "name": "",
          "type": "bool"
        }
      ],
      "stateMutability": "view",
      "type": "function"
    },
    {
      "inputs": [],
      "name": "name",
      "outputs": [
        {
          "internalType": "string",
          "name": "",
          "type": "string"
        }
      ],
      "stateMutability": "view",
      "type": "function"
    },
    {
      "inputs": [],
      "name": "owner",
      "outputs": [
        {
          "internalType": "address",
          "name": "",
          "type": "address"
        }
      ],
      "stateMutability": "view",
      "type": "function"
    },
    {
      "inputs": [
        {
          "internalType": "uint256",
          "name": "tokenId",
          "type": "uint256"
        }
      ],
      "name": "ownerOf",
      "outputs": [
        {
          "internalType": "address",
          "name": "",
          "type": "address"
        }
      ],
      "stateMutability": "view",
      "type": "function"
    },
    {
      "inputs": [],
      "name": "renounceOwnership",
      "outputs": [],
      "stateMutability": "nonpayable",
      "type": "function"
    },
    {
      "inputs": [
        {
          "internalType": "address",
          "name": "from",
          "type": "address"
        },
        {
          "internalType": "address",
          "name": "to",
          "type": "address"
        },
        {
          "internalType": "uint256",
          "name": "tokenId",
          "type": "uint256"
        }
      ],
      "name": "safeTransferFrom",
      "outputs": [],
      "stateMutability": "nonpayable",
      "type": "function"
    },
    {
      "inputs": [
        {
          "internalType": "address",
          "name": "from",
          "type": "address"
        },
        {
          "internalType": "address",
          "name": "to",
          "type": "address"
        },
        {
          "internalType": "uint256",
          "name": "tokenId",
          "type": "uint256"
        },
        {
          "internalType": "bytes",
          "name": "_data",
          "type": "bytes"
        }
      ],
      "name": "safeTransferFrom",
      "outputs": [],
      "stateMutability": "nonpayable",
      "type": "function"
    },
    {
      "inputs": [
        {
          "internalType": "address",
          "name": "operator",
          "type": "address"
        },
        {
          "internalType": "bool",
          "name": "approved",
          "type": "bool"
        }
      ],
      "name": "setApprovalForAll",
      "outputs": [],
      "stateMutability": "nonpayable",
      "type": "function"
    },
    {
      "inputs": [
        {
          "internalType": "bytes4",
          "name": "interfaceId",
          "type": "bytes4"
        }
      ],
      "name": "supportsInterface",
      "outputs": [
        {
          "internalType": "bool",
          "name": "",
          "type": "bool"
        }
      ],
      "stateMutability": "view",
      "type": "function"
    },
    {
      "inputs": [],
      "name": "symbol",
      "outputs": [
        {
          "internalType": "string",
          "name": "",
          "type": "string"
        }
      ],
      "stateMutability": "view",
      "type": "function"
    },
    {
      "inputs": [
        {
          "internalType": "uint256",
          "name": "index",
          "type": "uint256"
        }
      ],
      "name": "tokenByIndex",
      "outputs": [
        {
          "internalType": "uint256",
          "name": "",
          "type": "uint256"
        }
      ],
      "stateMutability": "view",
      "type": "function"
    },
    {
      "inputs": [
        {
          "internalType": "address",
          "name": "owner",
          "type": "address"
        },
        {
          "internalType": "uint256",
          "name": "index",
          "type": "uint256"
        }
      ],
      "name": "tokenOfOwnerByIndex",
      "outputs": [
        {
          "internalType": "uint256",
          "name": "",
          "type": "uint256"
        }
      ],
      "stateMutability": "view",
      "type": "function"
    },
    {
      "inputs": [
        {
          "internalType": "uint256",
          "name": "tokenId",
          "type": "uint256"
        }
      ],
      "name": "tokenURI",
      "outputs": [
        {
          "internalType": "string",
          "name": "",
          "type": "string"
        }
      ],
      "stateMutability": "view",
      "type": "function"
    },
    {
      "inputs": [
        {
          "internalType": "address",
          "name": "author",
          "type": "address"
        }
      ],
      "name": "tokensByAuthor",
      "outputs": [
        {
          "internalType": "uint256[]",
          "name": "",
          "type": "uint256[]"
        }
      ],
      "stateMutability": "view",
      "type": "function"
    },
    {
      "inputs": [],
      "name": "totalSupply",
      "outputs": [
        {
          "internalType": "uint256",
          "name": "",
          "type": "uint256"
        }
      ],
      "stateMutability": "view",
      "type": "function"
    },
    {
      "inputs": [
        {
          "internalType": "address",
          "name": "to",
          "type": "address"
        },
        {
          "internalType": "uint256",
          "name": "tokenId",
          "type": "uint256"
        }
      ],
      "name": "transferAuthorship",
      "outputs": [],
      "stateMutability": "nonpayable",
      "type": "function"
    },
    {
      "inputs": [
        {
          "internalType": "address",
          "name": "from",
          "type": "address"
        },
        {
          "internalType": "address",
          "name": "to",
          "type": "address"
        },
        {
          "internalType": "uint256",
          "name": "tokenId",
          "type": "uint256"
        }
      ],
      "name": "transferFrom",
      "outputs": [],
      "stateMutability": "nonpayable",
      "type": "function"
    },
    {
      "inputs": [
        {
          "internalType": "address",
          "name": "newOwner",
          "type": "address"
        }
      ],
      "name": "transferOwnership",
      "outputs": [],
      "stateMutability": "nonpayable",
      "type": "function"
    },
    {
      "inputs": [
        {
          "internalType": "string",
          "name": "name",
          "type": "string"
        },
        {
          "internalType": "string",
          "name": "symbol",
          "type": "string"
        },
        {
          "components": [
            {
              "internalType": "address",
              "name": "addr",
              "type": "address"
            },
            {
              "internalType": "string",
              "name": "roleMint",
              "type": "string"
            }
          ],
          "internalType": "struct NFTStruct.CommunitySettings",
          "name": "communitySettings_",
          "type": "tuple"
        }
      ],
      "name": "initialize",
      "outputs": [],
      "stateMutability": "nonpayable",
      "type": "function"
    },
    {
      "inputs": [
        {
          "internalType": "string",
          "name": "URI",
          "type": "string"
        },
        {
          "components": [
            {
              "internalType": "address",
              "name": "token",
              "type": "address"
            },
            {
              "internalType": "uint256",
              "name": "amount",
              "type": "uint256"
            },
            {
              "internalType": "uint256",
              "name": "multiply",
              "type": "uint256"
            },
            {
              "internalType": "uint256",
              "name": "accrue",
              "type": "uint256"
            },
            {
              "internalType": "uint256",
              "name": "intervalSeconds",
              "type": "uint256"
            },
            {
              "internalType": "uint256",
              "name": "reduceCommission",
              "type": "uint256"
            }
          ],
          "internalType": "struct NFTStruct.CommissionParams",
          "name": "commissionParams",
          "type": "tuple"
        }
      ],
      "name": "create",
      "outputs": [],
      "stateMutability": "nonpayable",
      "type": "function"
    },
    {
      "inputs": [
        {
          "internalType": "uint256",
          "name": "tokenId",
          "type": "uint256"
        }
      ],
      "name": "getCommission",
      "outputs": [
        {
          "internalType": "address",
          "name": "t",
          "type": "address"
        },
        {
          "internalType": "uint256",
          "name": "r",
          "type": "uint256"
        }
      ],
      "stateMutability": "view",
      "type": "function"
    },
    {
      "inputs": [
        {
          "internalType": "address",
          "name": "erc20address",
          "type": "address"
        }
      ],
      "name": "claimLostToken",
      "outputs": [],
      "stateMutability": "nonpayable",
      "type": "function"
    },
    {
      "inputs": [
        {
          "internalType": "uint256",
          "name": "tokenId",
          "type": "uint256"
        },
        {
          "internalType": "uint256",
          "name": "amount",
          "type": "uint256"
        },
        {
          "internalType": "address",
          "name": "consumeToken",
          "type": "address"
        }
      ],
      "name": "listForSale",
      "outputs": [],
      "stateMutability": "nonpayable",
      "type": "function"
    },
    {
      "inputs": [
        {
          "internalType": "uint256",
          "name": "tokenId",
          "type": "uint256"
        }
      ],
      "name": "removeFromSale",
      "outputs": [],
      "stateMutability": "nonpayable",
      "type": "function"
    },
    {
      "inputs": [
        {
          "internalType": "uint256",
          "name": "tokenId",
          "type": "uint256"
        }
      ],
      "name": "buy",
      "outputs": [],
      "stateMutability": "payable",
      "type": "function"
    },
    {
      "inputs": [
        {
          "internalType": "uint256",
          "name": "tokenId",
          "type": "uint256"
        }
      ],
      "name": "buyWithToken",
      "outputs": [],
      "stateMutability": "nonpayable",
      "type": "function"
    },
    {
      "inputs": [
        {
          "internalType": "uint256",
          "name": "tokenId",
          "type": "uint256"
        },
        {
          "internalType": "uint256",
          "name": "amount",
          "type": "uint256"
        }
      ],
      "name": "offerToPayCommission",
      "outputs": [],
      "stateMutability": "nonpayable",
      "type": "function"
    },
    {
      "inputs": [
        {
          "internalType": "uint256",
          "name": "tokenId",
          "type": "uint256"
        },
        {
          "internalType": "uint256",
          "name": "reduceCommissionPercent",
          "type": "uint256"
        }
      ],
      "name": "reduceCommission",
      "outputs": [],
      "stateMutability": "nonpayable",
      "type": "function"
    }
  ],
  "bytecode": "0x608060405234801561001057600080fd5b506146f8806100206000396000f3fe6080604052600436106101e35760003560e01c8063571733ab11610102578063a22cb46511610095578063c87b56dd11610064578063c87b56dd146105b1578063d96a094a146105d1578063e985e9c5146105e4578063f2fde38b1461062d576101e3565b8063a22cb46514610531578063ab2e14c714610551578063ac74b42d14610571578063b88d4fde14610591576101e3565b8063715018a6116100d1578063715018a6146104c9578063870eac84146104de5780638da5cb5b146104fe57806395d89b411461051c576101e3565b8063571733ab146104495780635fb5b909146104695780636352211e1461048957806370a08231146104a9576101e3565b806323250f841161017a5780633c8bccd9116101495780633c8bccd9146103aa5780633da63e07146103e957806342842e0e146104095780634f6ccce714610429576101e3565b806323250f841461032a57806323b872dd1461034a57806327709f251461036a5780632f745c591461038a576101e3565b8063095ea7b3116101b6578063095ea7b3146102a85780631361a3b6146102ca57806318160ddd146102ea578063207b24601461030a576101e3565b806301c7aa9b146101e857806301ffc9a71461021e57806306fdde031461024e578063081812fc14610270575b600080fd5b3480156101f457600080fd5b50610208610203366004613d5d565b61064d565b6040516102159190614287565b60405180910390f35b34801561022a57600080fd5b5061023e610239366004613fb2565b61073f565b6040519015158152602001610215565b34801561025a57600080fd5b5061026361076a565b60405161021591906142cb565b34801561027c57600080fd5b5061029061028b36600461414e565b6107fc565b6040516001600160a01b039091168152602001610215565b3480156102b457600080fd5b506102c86102c3366004613e93565b610889565b005b3480156102d657600080fd5b506102c86102e536600461414e565b61099f565b3480156102f657600080fd5b5061012f545b604051908152602001610215565b34801561031657600080fd5b506102c8610325366004613e93565b610a58565b34801561033657600080fd5b506102c861034536600461419f565b610b93565b34801561035657600080fd5b506102c8610365366004613da9565b610c73565b34801561037657600080fd5b506102c86103853660046140af565b610ca4565b34801561039657600080fd5b506102fc6103a5366004613e93565b610f1c565b3480156103b657600080fd5b506103ca6103c536600461414e565b610fb3565b604080516001600160a01b039093168352602083019190915201610215565b3480156103f557600080fd5b506102c861040436600461417e565b610ff0565b34801561041557600080fd5b506102c8610424366004613da9565b6110b9565b34801561043557600080fd5b506102fc61044436600461414e565b6110d4565b34801561045557600080fd5b5061029061046436600461414e565b611177565b34801561047557600080fd5b506102c8610484366004613d5d565b6111c3565b34801561049557600080fd5b506102906104a436600461414e565b61136a565b3480156104b557600080fd5b506102fc6104c4366004613d5d565b6113e1565b3480156104d557600080fd5b506102c8611468565b3480156104ea57600080fd5b506102c86104f9366004613fea565b61149e565b34801561050a57600080fd5b506065546001600160a01b0316610290565b34801561052857600080fd5b50610263611557565b34801561053d57600080fd5b506102c861054c366004613e5d565b611566565b34801561055d57600080fd5b506102c861056c36600461417e565b611638565b34801561057d57600080fd5b506102c861058c36600461414e565b6116b8565b34801561059d57600080fd5b506102c86105ac366004613de4565b611b7a565b3480156105bd57600080fd5b506102636105cc36600461414e565b611bac565b6102c86105df36600461414e565b611bb7565b3480156105f057600080fd5b5061023e6105ff366004613d77565b6001600160a01b03918216600090815260ce6020908152604080832093909416825291909152205460ff1690565b34801561063957600080fd5b506102c8610648366004613d5d565b611f3d565b6001600160a01b0381166000908152610161602052604081206060919061067390611fd8565b905060008167ffffffffffffffff81111561069e57634e487b7160e01b600052604160045260246000fd5b6040519080825280602002602001820160405280156106c7578160200160208202803683370190505b50905060005b82811015610735576001600160a01b0385166000908152610161602052604090206106f89082611fe2565b82828151811061071857634e487b7160e01b600052603260045260246000fd5b60209081029190910101528061072d8161462d565b9150506106cd565b509150505b919050565b60006001600160e01b0319821663780e9d6360e01b1480610764575061076482611ff5565b92915050565b606060c98054610779906145f8565b80601f01602080910402602001604051908101604052809291908181526020018280546107a5906145f8565b80156107f25780601f106107c7576101008083540402835291602001916107f2565b820191906000526020600020905b8154815290600101906020018083116107d557829003601f168201915b5050505050905090565b60006108078261201a565b61086d5760405162461bcd60e51b815260206004820152602c60248201527f4552433732313a20617070726f76656420717565727920666f72206e6f6e657860448201526b34b9ba32b73a103a37b5b2b760a11b60648201526084015b60405180910390fd5b50600090815260cd60205260409020546001600160a01b031690565b60006108948261136a565b9050806001600160a01b0316836001600160a01b031614156109025760405162461bcd60e51b815260206004820152602160248201527f4552433732313a20617070726f76616c20746f2063757272656e74206f776e656044820152603960f91b6064820152608401610864565b336001600160a01b038216148061091e575061091e81336105ff565b6109905760405162461bcd60e51b815260206004820152603860248201527f4552433732313a20617070726f76652063616c6c6572206973206e6f74206f7760448201527f6e6572206e6f7220617070726f76656420666f7220616c6c00000000000000006064820152608401610864565b61099a8383612037565b505050565b806109a98161201a565b6109c55760405162461bcd60e51b8152600401610864906144da565b816109cf8161136a565b6001600160a01b0316336001600160a01b0316146109ff5760405162461bcd60e51b81526004016108649061437e565b6000838152610165602052604090819020600201805460ff19169055517fccd0b7af52bf5f08ec6781299e66283301e612d1ca1ffceab3579a6364073c3090610a4b9085815260200190565b60405180910390a1505050565b80610a628161201a565b610a7e5760405162461bcd60e51b8152600401610864906144da565b6000828152610160602052604090205482906001600160a01b03163314610ab75760405162461bcd60e51b8152600401610864906143c3565b600083815261016060205260409020546001600160a01b03908116908516811415610b405760405162461bcd60e51b815260206004820152603360248201527f4e4654417574686f72736869703a207472616e73666572417574686f7273686960448201527238103a379031bab93932b73a1030baba3437b960691b6064820152608401610864565b610b4b8482876120a5565b83856001600160a01b0316826001600160a01b03167f8d9ce12bb12e6e3e62f9ef6b9a7250c5c13f95cdb4d832735ce44e2757aa5ae860405160405180910390a45050505050565b82610b9d8161201a565b610bb95760405162461bcd60e51b8152600401610864906144da565b83610bc38161136a565b6001600160a01b0316336001600160a01b031614610bf35760405162461bcd60e51b81526004016108649061437e565b60008581526101656020908152604091829020600180820188905560028201805460ff1916909117905580546001600160a01b0319166001600160a01b03871617905581518781529081018690527fb22847a81ba2f3791bebe75c2e10b2e51dc01d8dcdb114da5d0fc6a0e4826f6b910160405180910390a15050505050565b610c7d338261210f565b610c995760405162461bcd60e51b815260040161086490614489565b61099a8383836121f9565b6101638054610cb2906145f8565b80601f0160208091040260200160405190810160405280929190818152602001828054610cde906145f8565b8015610d2b5780601f10610d0057610100808354040283529160200191610d2b565b820191906000526020600020905b815481529060010190602001808311610d0e57829003601f168201915b50505050506000610d3b8261220d565b9050600181151514610d995760405162461bcd60e51b815260206004820152602160248201527f53656e64657220686173206e6f7420696e2061636365737369626c65204c69736044820152601d60fa1b6064820152608401610864565b6000610da485612351565b84519091506001600160a01b0316610e095760405162461bcd60e51b815260206004820152602260248201527f4e46543a20546f6b656e20616464726573732063616e206e6f74206265207a65604482015261726f60f01b6064820152608401610864565b6000846080015111610e695760405162461bcd60e51b8152602060048201526024808201527f4e46543a20496e74657276616c5365636f6e64732063616e206e6f74206265206044820152637a65726f60e01b6064820152608401610864565b610e768460a001516123b6565b83516000828152610164602090815260409182902080546001600160a01b0319166001600160a01b0390941693909317835586015160019092019190915584015115610ec6578360400151610eca565b6127105b6000828152610164602052604090206002810191909155606085015160038201556080850151600482015560a085015160058201554260068201819055600790910155610f15612423565b5050505050565b6000610f27836113e1565b8210610f895760405162461bcd60e51b815260206004820152602b60248201527f455243373231456e756d657261626c653a206f776e657220696e646578206f7560448201526a74206f6620626f756e647360a81b6064820152608401610864565b506001600160a01b0391909116600090815261012d60209081526040808320938352929052205490565b60008082610fc08161201a565b610fdc5760405162461bcd60e51b8152600401610864906144da565b610fe584612432565b909590945092505050565b81610ffa8161201a565b6110165760405162461bcd60e51b8152600401610864906144da565b8161107d57611037336000858152610164602052604090206009019061258b565b156110785761105833600085815261016460205260409020600901906125ad565b506000838152610164602090815260408083203384526008019091528120555b61099a565b60008381526101646020818152604080842033808652600882018452918520879055938790529190526110b391600901906125c2565b50505050565b61099a83838360405180602001604052806000815250611b7a565b60006110e061012f5490565b82106111435760405162461bcd60e51b815260206004820152602c60248201527f455243373231456e756d657261626c653a20676c6f62616c20696e646578206f60448201526b7574206f6620626f756e647360a01b6064820152608401610864565b61012f828154811061116557634e487b7160e01b600052603260045260246000fd5b90600052602060002001549050919050565b6000816111838161201a565b61119f5760405162461bcd60e51b8152600401610864906144da565b600083815261016060205260408120546001600160a01b03165b9250505b50919050565b6065546001600160a01b031633146111ed5760405162461bcd60e51b81526004016108649061440f565b6040516370a0823160e01b81523060048201526000906001600160a01b038316906370a082319060240160206040518083038186803b15801561122f57600080fd5b505afa158015611243573d6000803e3d6000fd5b505050506040513d601f19601f820116820180604052508101906112679190614166565b9050600081116112b95760405162461bcd60e51b815260206004820152601d60248201527f4e46543a20546865726520617265206e6f206c6f737420746f6b656e730000006044820152606401610864565b60006001600160a01b03831663a9059cbb336040516001600160e01b031960e084901b1681526001600160a01b03909116600482015260248101859052604401602060405180830381600087803b15801561131357600080fd5b505af1158015611327573d6000803e3d6000fd5b505050506040513d601f19601f8201168201806040525081019061134b9190613f96565b90508061099a5760405162461bcd60e51b815260040161086490614444565b600081815260cb60205260408120546001600160a01b0316806107645760405162461bcd60e51b815260206004820152602960248201527f4552433732313a206f776e657220717565727920666f72206e6f6e657869737460448201526832b73a103a37b5b2b760b91b6064820152608401610864565b60006001600160a01b03821661144c5760405162461bcd60e51b815260206004820152602a60248201527f4552433732313a2062616c616e636520717565727920666f7220746865207a65604482015269726f206164647265737360b01b6064820152608401610864565b506001600160a01b0316600090815260cc602052604090205490565b6065546001600160a01b031633146114925760405162461bcd60e51b81526004016108649061440f565b61149c60006125d7565b565b600054610100900460ff16806114b7575060005460ff16155b6114d35760405162461bcd60e51b815260040161086490614330565b600054610100900460ff161580156114f5576000805461ffff19166101011790555b6114ff8484612629565b815161016280546001600160a01b0319166001600160a01b03909216919091178155602080840151805185939261153c9261016392910190613c50565b5090505080156110b3576000805461ff001916905550505050565b606060ca8054610779906145f8565b6001600160a01b0382163314156115bf5760405162461bcd60e51b815260206004820152601960248201527f4552433732313a20617070726f766520746f2063616c6c6572000000000000006044820152606401610864565b33600081815260ce602090815260408083206001600160a01b0387168085529252909120805460ff1916841515179055906001600160a01b03167f17307eab39ab6107e8899845ad3d59bd9653f200f220920489ca2b5937696c318360405161162c911515815260200190565b60405180910390a35050565b816116428161201a565b61165e5760405162461bcd60e51b8152600401610864906144da565b6000838152610160602052604090205483906001600160a01b031633146116975760405162461bcd60e51b8152600401610864906143c3565b6116a0836123b6565b50506000918252610164602052604090912060050155565b6002600154141561170b5760405162461bcd60e51b815260206004820152601f60248201527f5265656e7472616e637947756172643a207265656e7472616e742063616c6c006044820152606401610864565b60026001558061171a8161201a565b6117365760405162461bcd60e51b8152600401610864906144da565b60008281526101656020526040902060020154829060ff16151560011461179f5760405162461bcd60e51b815260206004820152601b60248201527f4e46543a20546f6b656e20646f6573206e6f7420696e2073616c6500000000006044820152606401610864565b6000838152610165602052604090205483906001600160a01b03166118145760405162461bcd60e51b815260206004820152602560248201527f4e46543a20546f6b656e2063616e206e6f742062652073616c6520666f7220746044820152646f6b656e7360d81b6064820152608401610864565b6000848152610165602052604081206001810154905490916001600160a01b039091169061194c826370a08231336040516001600160e01b031960e084901b1681526001600160a01b03909116600482015260240160206040518083038186803b15801561188157600080fd5b505afa158015611895573d6000803e3d6000fd5b505050506040513d601f19601f820116820180604052508101906118b99190614166565b6001600160a01b03841663dd62ed3e336040516001600160e01b031960e084901b1681526001600160a01b03909116600482015230602482015260440160206040518083038186803b15801561190e57600080fd5b505afa158015611922573d6000803e3d6000fd5b505050506040513d601f19601f820116820180604052508101906119469190614166565b906126a0565b9050828110156119af5760405162461bcd60e51b815260206004820152602860248201527f4e46543a2054686520616c6c6f77616e636520746f6b656e7320617265206e6f6044820152670e840cadcdeeaced60c31b6064820152608401610864565b60006001600160a01b0383166323b872dd336040516001600160e01b031960e084901b1681526001600160a01b03909116600482015230602482015260448101879052606401602060405180830381600087803b158015611a0f57600080fd5b505af1158015611a23573d6000803e3d6000fd5b505050506040513d601f19601f82011682018060405250810190611a479190613f96565b905080611a665760405162461bcd60e51b815260040161086490614444565b6000611a718961136a565b9050611a7e81338b6121f9565b60405163a9059cbb60e01b81526001600160a01b0382811660048301526024820187905285169063a9059cbb90604401602060405180830381600087803b158015611ac857600080fd5b505af1158015611adc573d6000803e3d6000fd5b505050506040513d601f19601f82011682018060405250810190611b009190613f96565b915081611b625760405162461bcd60e51b815260206004820152602a60248201527f4e46543a204661696c6564207768656e20277472616e73666572272066756e6460448201526939903a379037bbb732b960b11b6064820152608401610864565b611b6b8961099f565b50506001805550505050505050565b611b84338361210f565b611ba05760405162461bcd60e51b815260040161086490614489565b6110b3848484846126b6565b6060610764826126e9565b60026001541415611c0a5760405162461bcd60e51b815260206004820152601f60248201527f5265656e7472616e637947756172643a207265656e7472616e742063616c6c006044820152606401610864565b600260015580611c198161201a565b611c355760405162461bcd60e51b8152600401610864906144da565b60008281526101656020526040902060020154829060ff161515600114611c9e5760405162461bcd60e51b815260206004820152601b60248201527f4e46543a20546f6b656e20646f6573206e6f7420696e2073616c6500000000006044820152606401610864565b6000838152610165602052604090205483906001600160a01b031615611d125760405162461bcd60e51b8152602060048201526024808201527f4e46543a20546f6b656e2063616e206e6f742062652073616c6520666f7220636044820152636f696e7360e01b6064820152608401610864565b600084815261016560205260408120600101543490811015611d815760405162461bcd60e51b815260206004820152602260248201527f4e46543a2054686520636f696e732073656e7420617265206e6f7420656e6f756044820152610ced60f31b6064820152608401610864565b60008681526101656020526040812060010154611d9f908390612859565b90508015611e525760405133908290600081818185875af1925050503d8060008114611de7576040519150601f19603f3d011682016040523d82523d6000602084013e611dec565b606091505b50508093505082611e525760405162461bcd60e51b815260206004820152602a60248201527f4e46543a204661696c6564207768656e2073656e64206261636b20636f696e73604482015269103a379031b0b63632b960b11b6064820152608401610864565b6000611e5d8861136a565b9050611e6a81338a6121f9565b600088815261016560205260408082206001015490516001600160a01b0384169281818185875af1925050503d8060008114611ec2576040519150601f19603f3d011682016040523d82523d6000602084013e611ec7565b606091505b50508094505083611f265760405162461bcd60e51b8152602060048201526024808201527f4e46543a204661696c6564207768656e2073656e6420636f696e7320746f206f6044820152633bb732b960e11b6064820152608401610864565b611f2f8861099f565b505060018055505050505050565b6065546001600160a01b03163314611f675760405162461bcd60e51b81526004016108649061440f565b6001600160a01b038116611fcc5760405162461bcd60e51b815260206004820152602660248201527f4f776e61626c653a206e6577206f776e657220697320746865207a65726f206160448201526564647265737360d01b6064820152608401610864565b611fd5816125d7565b50565b6000610764825490565b6000611fee8383612865565b9392505050565b60006001600160e01b0319821663780e9d6360e01b148061076457506107648261289d565b600090815260cb60205260409020546001600160a01b0316151590565b600081815260cd6020526040902080546001600160a01b0319166001600160a01b038416908117909155819061206c8261136a565b6001600160a01b03167f8c5be1e5ebec7d5bd14f71427d1e84f3dd0314c0f7b2291e5b200ac8c7c3b92560405160405180910390a45050565b60008381526101606020908152604080832080546001600160a01b0319166001600160a01b03868116919091179091558516835261016190915290206120eb90846128ed565b506001600160a01b0381166000908152610161602052604090206110b390846128f9565b600061211a8261201a565b61217b5760405162461bcd60e51b815260206004820152602c60248201527f4552433732313a206f70657261746f7220717565727920666f72206e6f6e657860448201526b34b9ba32b73a103a37b5b2b760a11b6064820152608401610864565b60006121868361136a565b9050806001600160a01b0316846001600160a01b031614806121c15750836001600160a01b03166121b6846107fc565b6001600160a01b0316145b806121f157506001600160a01b03808216600090815260ce602090815260408083209388168352929052205460ff165b949350505050565b61220281612905565b61099a838383612b4d565b610162546000906001600160a01b03166122295750600161073a565b6101625460405163ce6ccfaf60e01b81523360048201526000916001600160a01b03169063ce6ccfaf9060240160006040518083038186803b15801561226e57600080fd5b505afa158015612282573d6000803e3d6000fd5b505050506040513d6000823e601f3d908101601f191682016040526122aa9190810190613ebc565b905060005b815181101561234a578181815181106122d857634e487b7160e01b600052603260045260246000fd5b60200260200101516040516020016122f091906141ff565b604051602081830303815290604052805190602001208460405160200161231791906141ff565b60405160208183030381529060405280519060200120141561233857600192505b806123428161462d565b9150506122af565b5050919050565b600061235d61015f5490565b90507fbd8fc82302267914ccd7d174afff47c76839d025f538845cbd49bdf675d3402133604080516001600160a01b039092168252602082018490520160405180910390a16123ac3382612cf8565b61073a8183612d16565b612710811115611fd55760405162461bcd60e51b815260206004820152603260248201527f4e46543a20726564756365436f6d6d697373696f6e2063616e20626520696e20604482015271696e74657276616c205b303b31303030305d60701b6064820152608401610864565b61149c61015f80546001019055565b600081815261016460205260409020600181015490546001600160a01b0316908061245c57612586565b60008381526101646020526040902060020154612710141561247d57612586565b60008381526101646020526040812060048101546006909101546124ad91906124a7904290612859565b90612da1565b600085815261016460205260408120600481015460079091015492935090916124dc91906124a7904290612859565b905060005b82811015612523576000868152610164602052604090206002015461250f90612710906124a7908790612dad565b93508061251b8161462d565b9150506124e1565b506000858152610164602052604090206003015461254d90612546908390612dad565b8490612db9565b6000868152610164602052604090206005015490935061258190612710906124a79061257a908390612859565b8690612dad565b925050505b915091565b6001600160a01b03811660009081526001830160205260408120541515611fee565b6000611fee836001600160a01b038416612dc5565b6000611fee836001600160a01b038416612ee2565b606580546001600160a01b038381166001600160a01b0319831681179093556040519116919082907f8be0079c531659141344cd1fd0a4f28419497f9722a3daafe3b4186f6b6457e090600090a35050565b600054610100900460ff1680612642575060005460ff16155b61265e5760405162461bcd60e51b815260040161086490614330565b600054610100900460ff16158015612680576000805461ffff19166101011790555b61268a8383612f31565b801561099a576000805461ff0019169055505050565b60008183106126af5781611fee565b5090919050565b6126c18484846121f9565b6126cd84848484612fa2565b6110b35760405162461bcd60e51b8152600401610864906142de565b60606126f48261201a565b61275a5760405162461bcd60e51b815260206004820152603160248201527f45524337323155524953746f726167653a2055524920717565727920666f72206044820152703737b732bc34b9ba32b73a103a37b5b2b760791b6064820152608401610864565b600082815260fb602052604081208054612773906145f8565b80601f016020809104026020016040519081016040528092919081815260200182805461279f906145f8565b80156127ec5780601f106127c1576101008083540402835291602001916127ec565b820191906000526020600020905b8154815290600101906020018083116127cf57829003601f168201915b50505050509050600061280a60408051602081019091526000815290565b905080516000141561281e5750905061073a565b81511561285057808260405160200161283892919061421b565b6040516020818303038152906040529250505061073a565b6111b9846130af565b6000611fee82846145b5565b600082600001828154811061288a57634e487b7160e01b600052603260045260246000fd5b9060005260206000200154905092915050565b60006001600160e01b031982166380ac58cd60e01b14806128ce57506001600160e01b03198216635b5e139f60e01b145b8061076457506301ffc9a760e01b6001600160e01b0319831614610764565b6000611fee8383612dc5565b6000611fee8383612ee2565b600061291082611177565b9050600061291d8361136a565b905060008061292b85612432565b90925090506001600160a01b0384161580612944575080155b1561294e57610f15565b600085815261016460205260409020819061296c906009018561258b565b156129805761297d86858584613186565b90505b60008681526101646020526040812061299b90600901611fd8565b90506000805b828110156129fa5783915081156129de576000898152610164602052604090206129db908a906129d49060090184611fe2565b8885613186565b93505b836129e8576129fa565b806129f28161462d565b9150506129a1565b508215612a595760405162461bcd60e51b815260206004820152602760248201527f4e46543a20617574686f72277320636f6d6d697373696f6e2073686f756c64206044820152661899481c185a5960ca1b6064820152608401610864565b60405163a9059cbb60e01b81526001600160a01b038881166004830152602482018690526000919087169063a9059cbb90604401602060405180830381600087803b158015612aa757600080fd5b505af1158015612abb573d6000803e3d6000fd5b505050506040513d601f19601f82011682018060405250810190612adf9190613f96565b905080612b425760405162461bcd60e51b815260206004820152602b60248201527f4e46543a204661696c6564207768656e20277472616e73666572272066756e6460448201526a39903a379030baba3437b960a91b6064820152608401610864565b505050505050505050565b826001600160a01b0316612b608261136a565b6001600160a01b031614612bc85760405162461bcd60e51b815260206004820152602960248201527f4552433732313a207472616e73666572206f6620746f6b656e2074686174206960448201526839903737ba1037bbb760b91b6064820152608401610864565b6001600160a01b038216612c2a5760405162461bcd60e51b8152602060048201526024808201527f4552433732313a207472616e7366657220746f20746865207a65726f206164646044820152637265737360e01b6064820152608401610864565b612c35838383613434565b612c40600082612037565b6001600160a01b038316600090815260cc60205260408120805460019290612c699084906145b5565b90915550506001600160a01b038216600090815260cc60205260408120805460019290612c9790849061456a565b9091555050600081815260cb602052604080822080546001600160a01b0319166001600160a01b0386811691821790925591518493918716917fddf252ad1be2c89b69c2b068fc378daa952ba7f163c4a11628f55a4df523b3ef91a4505050565b612d1282826040518060200160405280600081525061343f565b5050565b612d1f8261201a565b612d825760405162461bcd60e51b815260206004820152602e60248201527f45524337323155524953746f726167653a2055524920736574206f66206e6f6e60448201526d32bc34b9ba32b73a103a37b5b2b760911b6064820152608401610864565b600082815260fb60209081526040909120825161099a92840190613c50565b6000611fee8284614582565b6000611fee8284614596565b6000611fee828461456a565b60008181526001830160205260408120548015612ed8576000612de96001836145b5565b8554909150600090612dfd906001906145b5565b9050818114612e7e576000866000018281548110612e2b57634e487b7160e01b600052603260045260246000fd5b9060005260206000200154905080876000018481548110612e5c57634e487b7160e01b600052603260045260246000fd5b6000918252602080832090910192909255918252600188019052604090208390555b8554869080612e9d57634e487b7160e01b600052603160045260246000fd5b600190038181906000526020600020016000905590558560010160008681526020019081526020016000206000905560019350505050610764565b6000915050610764565b6000818152600183016020526040812054612f2957508154600181810184556000848152602080822090930184905584548482528286019093526040902091909155610764565b506000610764565b600054610100900460ff1680612f4a575060005460ff16155b612f665760405162461bcd60e51b815260040161086490614330565b600054610100900460ff16158015612f88576000805461ffff19166101011790555b612f90613472565b612f986134ed565b61268a838361355c565b60006001600160a01b0384163b156130a457604051630a85bd0160e11b81526001600160a01b0385169063150b7a0290612fe690339089908890889060040161424a565b602060405180830381600087803b15801561300057600080fd5b505af1925050508015613030575060408051601f3d908101601f1916820190925261302d91810190613fce565b60015b61308a573d80801561305e576040519150601f19603f3d011682016040523d82523d6000602084013e613063565b606091505b5080516130825760405162461bcd60e51b8152600401610864906142de565b805181602001fd5b6001600160e01b031916630a85bd0160e11b1490506121f1565b506001949350505050565b60606130ba8261201a565b61311e5760405162461bcd60e51b815260206004820152602f60248201527f4552433732314d657461646174613a2055524920717565727920666f72206e6f60448201526e3732bc34b9ba32b73a103a37b5b2b760891b6064820152608401610864565b600061313560408051602081019091526000815290565b905060008151116131555760405180602001604052806000815250611fee565b8061315f846135cd565b60405160200161317092919061421b565b6040516020818303038152906040529392505050565b6040516370a0823160e01b81526001600160a01b03848116600483015260009182916132ba91908616906370a082319060240160206040518083038186803b1580156131d157600080fd5b505afa1580156131e5573d6000803e3d6000fd5b505050506040513d601f19601f820116820180604052508101906132099190614166565b604051636eb1769f60e11b81526001600160a01b038881166004830152306024830152611946919088169063dd62ed3e9060440160206040518083038186803b15801561325557600080fd5b505afa158015613269573d6000803e3d6000fd5b505050506040513d601f19601f8201168201806040525081019061328d9190614166565b60008a8152610164602090815260408083206001600160a01b038d168452600801909152902054906126a0565b9050801561342b57828111156132d5575060009050816132e2565b6132df8382612859565b91505b6040516323b872dd60e01b81526001600160a01b03868116600483015230602483015260448201839052600091908616906323b872dd90606401602060405180830381600087803b15801561333657600080fd5b505af115801561334a573d6000803e3d6000fd5b505050506040513d601f19601f8201168201806040525081019061336e9190613f96565b90508061338d5760405162461bcd60e51b815260040161086490614444565b6000878152610164602090815260408083206001600160a01b038a1684526008019091529020546133be9083612859565b6000888152610164602090815260408083206001600160a01b038b1684526008019091529020819055613429576000878152610164602081815260408084206001600160a01b038b168552600881018352908420849055928a90525261342790600901876125ad565b505b505b50949350505050565b61099a8383836136e8565b61344983836137a2565b6134566000848484612fa2565b61099a5760405162461bcd60e51b8152600401610864906142de565b600054610100900460ff168061348b575060005460ff16155b6134a75760405162461bcd60e51b815260040161086490614330565b600054610100900460ff161580156134c9576000805461ffff19166101011790555b6134d16137eb565b6134d9613855565b8015611fd5576000805461ff001916905550565b600054610100900460ff1680613506575060005460ff16155b6135225760405162461bcd60e51b815260040161086490614330565b600054610100900460ff16158015613544576000805461ffff19166101011790555b61354c6137eb565b6135546137eb565b6134d96137eb565b600054610100900460ff1680613575575060005460ff16155b6135915760405162461bcd60e51b815260040161086490614330565b600054610100900460ff161580156135b3576000805461ffff19166101011790555b6135bb6137eb565b6135c36137eb565b61268a83836138b5565b6060816135f257506040805180820190915260018152600360fc1b602082015261073a565b8160005b811561361c57806136068161462d565b91506136159050600a83614582565b91506135f6565b60008167ffffffffffffffff81111561364557634e487b7160e01b600052604160045260246000fd5b6040519080825280601f01601f19166020018201604052801561366f576020820181803683370190505b5090505b84156111b9576136846001836145b5565b9150613691600a86614648565b61369c90603061456a565b60f81b8183815181106136bf57634e487b7160e01b600052603260045260246000fd5b60200101906001600160f81b031916908160001a9053506136e1600a86614582565b9450613673565b6001600160a01b038316613745576137408161012f8054600083815261013060205260408120829055600182018355919091527f232da9e50dad2971456a78fb5cd6ff6b75019984d6e918139ce990999420f9790155565b613768565b816001600160a01b0316836001600160a01b03161461376857613768838261394a565b6001600160a01b03821661377f57611078816139ec565b826001600160a01b0316826001600160a01b03161461099a5761099a8282613acb565b6137ac8282613b11565b6137b8816000336120a5565b604051819033906000907f8d9ce12bb12e6e3e62f9ef6b9a7250c5c13f95cdb4d832735ce44e2757aa5ae8908290a45050565b600054610100900460ff1680613804575060005460ff16155b6138205760405162461bcd60e51b815260040161086490614330565b600054610100900460ff161580156134d9576000805461ffff19166101011790558015611fd5576000805461ff001916905550565b600054610100900460ff168061386e575060005460ff16155b61388a5760405162461bcd60e51b815260040161086490614330565b600054610100900460ff161580156138ac576000805461ffff19166101011790555b6134d9336125d7565b600054610100900460ff16806138ce575060005460ff16155b6138ea5760405162461bcd60e51b815260040161086490614330565b600054610100900460ff1615801561390c576000805461ffff19166101011790555b825161391f9060c9906020860190613c50565b5081516139339060ca906020850190613c50565b50801561099a576000805461ff0019169055505050565b60006001613957846113e1565b61396191906145b5565b600083815261012e60205260409020549091508082146139b7576001600160a01b038416600090815261012d60209081526040808320858452825280832054848452818420819055835261012e90915290208190555b50600091825261012e602090815260408084208490556001600160a01b03909416835261012d81528383209183525290812055565b61012f546000906139ff906001906145b5565b6000838152610130602052604081205461012f8054939450909284908110613a3757634e487b7160e01b600052603260045260246000fd5b906000526020600020015490508061012f8381548110613a6757634e487b7160e01b600052603260045260246000fd5b6000918252602080832090910192909255828152610130909152604080822084905585825281205561012f805480613aaf57634e487b7160e01b600052603160045260246000fd5b6001900381819060005260206000200160009055905550505050565b6000613ad6836113e1565b6001600160a01b03909316600090815261012d60209081526040808320868452825280832085905593825261012e9052919091209190915550565b6001600160a01b038216613b675760405162461bcd60e51b815260206004820181905260248201527f4552433732313a206d696e7420746f20746865207a65726f20616464726573736044820152606401610864565b613b708161201a565b15613bbd5760405162461bcd60e51b815260206004820152601c60248201527f4552433732313a20746f6b656e20616c7265616479206d696e746564000000006044820152606401610864565b613bc960008383613434565b6001600160a01b038216600090815260cc60205260408120805460019290613bf290849061456a565b9091555050600081815260cb602052604080822080546001600160a01b0319166001600160a01b03861690811790915590518392907fddf252ad1be2c89b69c2b068fc378daa952ba7f163c4a11628f55a4df523b3ef908290a45050565b828054613c5c906145f8565b90600052602060002090601f016020900481019282613c7e5760008555613cc4565b82601f10613c9757805160ff1916838001178555613cc4565b82800160010185558215613cc4579182015b82811115613cc4578251825591602001919060010190613ca9565b50613cd0929150613cd4565b5090565b5b80821115613cd05760008155600101613cd5565b6000613cfc613cf784614542565b614511565b9050828152838383011115613d1057600080fd5b828260208301376000602084830101529392505050565b80356001600160a01b038116811461073a57600080fd5b600082601f830112613d4e578081fd5b611fee83833560208501613ce9565b600060208284031215613d6e578081fd5b611fee82613d27565b60008060408385031215613d89578081fd5b613d9283613d27565b9150613da060208401613d27565b90509250929050565b600080600060608486031215613dbd578081fd5b613dc684613d27565b9250613dd460208501613d27565b9150604084013590509250925092565b60008060008060808587031215613df9578081fd5b613e0285613d27565b9350613e1060208601613d27565b925060408501359150606085013567ffffffffffffffff811115613e32578182fd5b8501601f81018713613e42578182fd5b613e5187823560208401613ce9565b91505092959194509250565b60008060408385031215613e6f578182fd5b613e7883613d27565b91506020830135613e888161469e565b809150509250929050565b60008060408385031215613ea5578182fd5b613eae83613d27565b946020939093013593505050565b60006020808385031215613ece578182fd5b825167ffffffffffffffff80821115613ee5578384fd5b818501915085601f830112613ef8578384fd5b815181811115613f0a57613f0a614688565b613f18848260051b01614511565b8181528481019250838501865b83811015613f8857815186018a603f820112613f3f578889fd5b878101516040613f51613cf783614542565b8281528d82848601011115613f64578b8cfd5b613f73838c83018487016145cc565b88525050509386019390860190600101613f25565b509098975050505050505050565b600060208284031215613fa7578081fd5b8151611fee8161469e565b600060208284031215613fc3578081fd5b8135611fee816146ac565b600060208284031215613fdf578081fd5b8151611fee816146ac565b600080600060608486031215613ffe578081fd5b833567ffffffffffffffff80821115614015578283fd5b61402187838801613d3e565b94506020860135915080821115614036578283fd5b61404287838801613d3e565b93506040860135915080821115614057578283fd5b908501906040828803121561406a578283fd5b6140746040614511565b61407d83613d27565b8152602083013582811115614090578485fd5b61409c89828601613d3e565b6020830152508093505050509250925092565b60008082840360e08112156140c2578283fd5b833567ffffffffffffffff8111156140d8578384fd5b6140e486828701613d3e565b93505060c0601f19820112156140f8578182fd5b5061410360c0614511565b61410f60208501613d27565b815260408401356020820152606084013560408201526080840135606082015260a0840135608082015260c084013560a0820152809150509250929050565b60006020828403121561415f578081fd5b5035919050565b600060208284031215614177578081fd5b5051919050565b60008060408385031215614190578182fd5b50508035926020909101359150565b6000806000606084860312156141b3578081fd5b83359250602084013591506141ca60408501613d27565b90509250925092565b600081518084526141eb8160208601602086016145cc565b601f01601f19169290920160200192915050565b600082516142118184602087016145cc565b9190910192915050565b6000835161422d8184602088016145cc565b8351908301906142418183602088016145cc565b01949350505050565b6001600160a01b038581168252841660208201526040810183905260806060820181905260009061427d908301846141d3565b9695505050505050565b6020808252825182820181905260009190848201906040850190845b818110156142bf578351835292840192918401916001016142a3565b50909695505050505050565b600060208252611fee60208301846141d3565b60208082526032908201527f4552433732313a207472616e7366657220746f206e6f6e20455243373231526560408201527131b2b4bb32b91034b6b83632b6b2b73a32b960711b606082015260800190565b6020808252602e908201527f496e697469616c697a61626c653a20636f6e747261637420697320616c72656160408201526d191e481a5b9a5d1a585b1a5e995960921b606082015260800190565b60208082526025908201527f4e4654426173653a2053656e646572206973206e6f74206f776e6572206f66206040820152643a37b5b2b760d91b606082015260800190565b6020808252602c908201527f4e4654417574686f72736869703a2073656e646572206973206e6f742061757460408201526b3437b91037b3103a37b5b2b760a11b606082015260800190565b6020808252818101527f4f776e61626c653a2063616c6c6572206973206e6f7420746865206f776e6572604082015260600190565b60208082526025908201527f4e46543a204661696c6564207768656e20277472616e7366657246726f6d272060408201526466756e647360d81b606082015260800190565b60208082526031908201527f4552433732313a207472616e736665722063616c6c6572206973206e6f74206f6040820152701ddb995c881b9bdc88185c1c1c9bdd9959607a1b606082015260800190565b6020808252601a908201527f4e4654426173653a204e6f6e6578697374656e7420746f6b656e000000000000604082015260600190565b604051601f8201601f1916810167ffffffffffffffff8111828210171561453a5761453a614688565b604052919050565b600067ffffffffffffffff82111561455c5761455c614688565b50601f01601f191660200190565b6000821982111561457d5761457d61465c565b500190565b60008261459157614591614672565b500490565b60008160001904831182151516156145b0576145b061465c565b500290565b6000828210156145c7576145c761465c565b500390565b60005b838110156145e75781810151838201526020016145cf565b838111156110b35750506000910152565b600181811c9082168061460c57607f821691505b602082108114156111bd57634e487b7160e01b600052602260045260246000fd5b60006000198214156146415761464161465c565b5060010190565b60008261465757614657614672565b500690565b634e487b7160e01b600052601160045260246000fd5b634e487b7160e01b600052601260045260246000fd5b634e487b7160e01b600052604160045260246000fd5b8015158114611fd557600080fd5b6001600160e01b031981168114611fd557600080fdfea2646970667358221220ba5618e71e50e87ec9a30aec862681421b8e5d727b49c2fe7ce78daebb5eb93764736f6c63430008030033",
  "immutableReferences": {},
  "source": "// SPDX-License-Identifier: MIT\r\npragma solidity ^0.8.0;\r\n\r\nimport \"@openzeppelin/contracts-upgradeable/token/ERC20/IERC20Upgradeable.sol\";\r\n\r\nimport \"@openzeppelin/contracts-upgradeable/utils/math/SafeMathUpgradeable.sol\";\r\nimport \"@openzeppelin/contracts-upgradeable/utils/math/MathUpgradeable.sol\";\r\n\r\n\r\nimport \"./interfaces/ICommunity.sol\";\r\n\r\nimport \"./NFTAuthorship.sol\";\r\n\r\ncontract NFT is NFTAuthorship {\r\n    \r\n    using SafeMathUpgradeable for uint256;\r\n    using MathUpgradeable for uint256;\r\n    using EnumerableSetUpgradeable for EnumerableSetUpgradeable.AddressSet;\r\n    \r\n    \r\n    CommunitySettings communitySettings;\r\n\r\n    // Mapping from token ID to commission\r\n    mapping (uint256 => CommissionSettings) private _commissions;\r\n    \r\n    mapping (uint256 => SalesData) private _salesData;\r\n    \r\n    event TokenAddedToSale(uint256 tokenId, uint256 amount);\r\n    event TokenRemovedFromSale(uint256 tokenId);\r\n    \r\n    modifier canRecord(string memory communityRole) {\r\n        bool s = _canRecord(communityRole);\r\n        \r\n        require(s == true, \"Sender has not in accessible List\");\r\n        _;\r\n    }\r\n    \r\n    modifier onlySale(uint256 tokenId) {\r\n        require(_salesData[tokenId].isSale == true, \"NFT: Token does not in sale\");\r\n        _;\r\n    }\r\n    modifier onlySaleForCoins(uint256 tokenId) {\r\n        require(_salesData[tokenId].erc20Address == address(0), \"NFT: Token can not be sale for coins\");\r\n        _;\r\n    }\r\n    modifier onlySaleForTokens(uint256 tokenId) {\r\n        require(_salesData[tokenId].erc20Address != address(0), \"NFT: Token can not be sale for tokens\");\r\n        _;\r\n    }\r\n    \r\n    /**\r\n     * @param name name of token ERC721 \r\n     * @param symbol symbol of token ERC721 \r\n     * @param communitySettings_ community setting. See {NFTStruct-CommunitySettings}.\r\n     */\r\n    function initialize(\r\n        string memory name,\r\n        string memory symbol,\r\n        CommunitySettings memory communitySettings_\r\n    ) public initializer {\r\n        __NFTAuthorship_init(name, symbol);\r\n        communitySettings = communitySettings_;\r\n    }\r\n   \r\n    /**\r\n     * creation NFT token\r\n     * @param URI Token URI\r\n     * @param commissionParams commission will be send to author when token's owner sell to someone it. See {NFTStruct-CommissionParams}.\r\n     */\r\n    function create(\r\n        string memory URI,\r\n        CommissionParams memory commissionParams\r\n    ) \r\n        public \r\n        canRecord(communitySettings.roleMint) \r\n        virtual  \r\n    {\r\n        uint256 tokenId = _create(URI);\r\n        \r\n        require(commissionParams.token != address(0), \"NFT: Token address can not be zero\");\r\n        require(commissionParams.intervalSeconds > 0, \"NFT: IntervalSeconds can not be zero\");\r\n        _validateReduceCommission(commissionParams.reduceCommission);\r\n        \r\n        _commissions[tokenId].token = commissionParams.token;\r\n        _commissions[tokenId].amount = commissionParams.amount;\r\n        _commissions[tokenId].multiply = (commissionParams.multiply == 0 ? 10000 : commissionParams.multiply);\r\n        _commissions[tokenId].accrue = commissionParams.accrue;\r\n        _commissions[tokenId].intervalSeconds = commissionParams.intervalSeconds;\r\n        _commissions[tokenId].reduceCommission = commissionParams.reduceCommission;\r\n        _commissions[tokenId].createdTs = block.timestamp;\r\n        _commissions[tokenId].lastTransferTs = block.timestamp;\r\n      \r\n        _createAfter();\r\n    }\r\n    \r\n    /** \r\n     * returned commission that will be paid to token's author while transferring NFT\r\n     * @param tokenId NFT tokenId\r\n     */\r\n    function getCommission(\r\n        uint256 tokenId\r\n    ) \r\n        public\r\n        view\r\n        onlyIfTokenExists(tokenId)\r\n        returns(address t, uint256 r)\r\n    {\r\n        (t, r) = _getCommission(tokenId);\r\n    }\r\n    \r\n    /**\r\n     * contract's owner can claim tokens mistekenly sent to this contract\r\n     * @param erc20address ERC20 address contract\r\n     */\r\n    function claimLostToken(\r\n        address erc20address\r\n    ) \r\n        public \r\n        onlyOwner \r\n    {\r\n        uint256 funds = IERC20Upgradeable(erc20address).balanceOf(address(this));\r\n        require(funds > 0, \"NFT: There are no lost tokens\");\r\n            \r\n        bool success = IERC20Upgradeable(erc20address).transfer(_msgSender(), funds);\r\n        require(success, \"NFT: Failed when 'transferFrom' funds\");\r\n    }\r\n    \r\n    /**\r\n     * put NFT to list for sale. then anyone can buy it\r\n     * @param tokenId NFT tokenId\r\n     * @param amount amount that need to be paid to owner when some1 buy token\r\n     * @param consumeToken erc20 token. if set address(0) then expected coins to pay for NFT\r\n     */\r\n    function listForSale(\r\n        uint256 tokenId,\r\n        uint256 amount,\r\n        address consumeToken\r\n    )\r\n        public\r\n        onlyIfTokenExists(tokenId)\r\n        onlyNFTOwner(tokenId)\r\n    {\r\n        _salesData[tokenId].amount = amount;\r\n        _salesData[tokenId].isSale = true;\r\n        _salesData[tokenId].erc20Address = consumeToken;\r\n        emit TokenAddedToSale(tokenId, amount);\r\n    }\r\n    \r\n    /**\r\n     * remove NFT from list for sale.\r\n     * @param tokenId NFT tokenId\r\n     */\r\n    function removeFromSale(\r\n        uint256 tokenId\r\n    )\r\n        public \r\n        onlyIfTokenExists(tokenId)\r\n        onlyNFTOwner(tokenId)\r\n    {\r\n        _salesData[tokenId].isSale = false;    \r\n        \r\n        emit TokenRemovedFromSale(tokenId);\r\n    }\r\n    \r\n    /**\r\n     * buying token. new owner need to pay for nft by coins. Also payment to author is expected\r\n     * @param tokenId NFT tokenId\r\n     */\r\n    function buy(\r\n        uint256 tokenId\r\n    )\r\n        public \r\n        payable\r\n        nonReentrant\r\n        onlyIfTokenExists(tokenId)\r\n        onlySale(tokenId)\r\n        onlySaleForCoins(tokenId)\r\n    {\r\n\r\n        bool success;\r\n        uint256 funds = msg.value;\r\n        require(funds >= _salesData[tokenId].amount, \"NFT: The coins sent are not enough\");\r\n        \r\n        // Refund\r\n        uint256 refund = (funds).sub(_salesData[tokenId].amount);\r\n        if (refund > 0) {\r\n            (success, ) = (_msgSender()).call{value: refund}(\"\");    \r\n            require(success, \"NFT: Failed when send back coins to caller\");\r\n        }\r\n        \r\n        address owner = ownerOf(tokenId);\r\n        _transfer(owner, _msgSender(), tokenId);\r\n        \r\n        (success, ) = (owner).call{value: _salesData[tokenId].amount}(\"\");    \r\n        require(success, \"NFT: Failed when send coins to owner\");\r\n        \r\n        removeFromSale(tokenId);\r\n        \r\n    }\r\n    \r\n    /**\r\n     * buying token. new owner need to pay for nft by tokens(See {NFTStruct-SalesData-erc20Address}). Also payment to author is expected\r\n     * @param tokenId NFT tokenId\r\n     */\r\n    function buyWithToken(\r\n        uint256 tokenId\r\n    )\r\n        public \r\n        nonReentrant\r\n        onlyIfTokenExists(tokenId)\r\n        onlySale(tokenId)\r\n        onlySaleForTokens(tokenId)\r\n    {\r\n        \r\n        uint256 needToObtain = _salesData[tokenId].amount;\r\n        \r\n        IERC20Upgradeable saleToken = IERC20Upgradeable(_salesData[tokenId].erc20Address);\r\n        uint256 minAmount = saleToken.allowance(_msgSender(), address(this)).min(saleToken.balanceOf(_msgSender()));\r\n        \r\n        require (minAmount >= needToObtain, \"NFT: The allowance tokens are not enough\");\r\n        \r\n        bool success;\r\n        \r\n        success = saleToken.transferFrom(_msgSender(), address(this), needToObtain);\r\n        require(success, \"NFT: Failed when 'transferFrom' funds\");\r\n\r\n        address owner = ownerOf(tokenId);\r\n        _transfer(owner, _msgSender(), tokenId);\r\n        \r\n        success = saleToken.transfer(owner, needToObtain);\r\n        require(success, \"NFT: Failed when 'transfer' funds to owner\");\r\n            \r\n        removeFromSale(tokenId);\r\n        \r\n    }\r\n    \r\n    /**\r\n     * anyone can offer to pay commission to any tokens transfer\r\n     * @param tokenId NFT tokenId\r\n     * @param amount amount of token(See {NFTStruct-ComissionSettings-token}) \r\n     */\r\n    function offerToPayCommission(\r\n        uint256 tokenId, \r\n        uint256 amount \r\n    )\r\n        public \r\n        onlyIfTokenExists(tokenId)\r\n    {\r\n        if (amount == 0) {\r\n            if (_commissions[tokenId].offerAddresses.contains(_msgSender())) {\r\n                _commissions[tokenId].offerAddresses.remove(_msgSender());\r\n                delete _commissions[tokenId].offerPayAmount[_msgSender()];\r\n            }\r\n        } else {\r\n            _commissions[tokenId].offerPayAmount[_msgSender()] = amount;\r\n            _commissions[tokenId].offerAddresses.add(_msgSender());\r\n        }\r\n\r\n    }\r\n    \r\n    /**\r\n     * reduce commission. author can to allow a token transfer for free to setup reduce commission to 10000(100%)\r\n     * @param tokenId NFT tokenId\r\n     * @param reduceCommissionPercent commission in percent. can be in interval [0;10000]\r\n     */\r\n    function reduceCommission(\r\n        uint256 tokenId,\r\n        uint256 reduceCommissionPercent\r\n    ) \r\n        public\r\n        onlyIfTokenExists(tokenId)\r\n        onlyNFTAuthor(tokenId)\r\n    {\r\n        _validateReduceCommission(reduceCommissionPercent);\r\n        \r\n        _commissions[tokenId].reduceCommission = reduceCommissionPercent;\r\n    }\r\n\r\n    /**\r\n     * commission amount that need to be paid while NFT token transferring\r\n     * @param tokenId NFT tokenId\r\n     */\r\n    function _getCommission(\r\n        uint256 tokenId\r\n    ) \r\n        internal \r\n        virtual\r\n        view\r\n        returns(address t, uint256 r)\r\n    {\r\n        \r\n        //initialCommission\r\n        r = _commissions[tokenId].amount;\r\n        t = _commissions[tokenId].token;\r\n        if (r == 0) {\r\n            \r\n        } else {\r\n            if (_commissions[tokenId].multiply == 10000) {\r\n                // left initial commission\r\n            } else {\r\n                \r\n                uint256 intervalsSinceCreate = (block.timestamp.sub(_commissions[tokenId].createdTs)).div(_commissions[tokenId].intervalSeconds);\r\n                uint256 intervalsSinceLastTransfer = (block.timestamp.sub(_commissions[tokenId].lastTransferTs)).div(_commissions[tokenId].intervalSeconds);\r\n                \r\n                // (   \r\n                //     initialValue * (multiply ^ intervals) + (intervalsSinceLastTransfer * accrue)\r\n                // ) * (10000 - reduceCommission) / 10000\r\n                \r\n                for(uint256 i = 0; i < intervalsSinceCreate; i++) {\r\n                    r = r.mul(_commissions[tokenId].multiply).div(10000);\r\n                    \r\n                }\r\n                \r\n                r = r.add(\r\n                        intervalsSinceLastTransfer.mul(_commissions[tokenId].accrue)\r\n                    );\r\n                \r\n                r = r.mul(\r\n                        uint256(10000).sub(_commissions[tokenId].reduceCommission)\r\n                    ).div(uint256(10000));\r\n                \r\n            }\r\n        }\r\n        \r\n    }\r\n    /**\r\n     * method realized collect commission logic\r\n     * @param tokenId token ID\r\n     */\r\n    function _transferHook(\r\n        uint256 tokenId\r\n    ) \r\n        internal \r\n        virtual\r\n        override\r\n    {\r\n        address author = authorOf(tokenId);\r\n        address owner = ownerOf(tokenId);\r\n        \r\n        address commissionToken;\r\n        uint256 commissionAmount;\r\n        (commissionToken, commissionAmount) = _getCommission(tokenId);\r\n        \r\n        if (author == address(0) || commissionAmount == 0) {\r\n            \r\n        } else {\r\n            \r\n            uint256 commissionAmountLeft = commissionAmount;\r\n            if (_commissions[tokenId].offerAddresses.contains(owner)) {\r\n                commissionAmountLeft = _transferPay(tokenId, owner, commissionToken, commissionAmountLeft);\r\n            }\r\n            \r\n            uint256 len = _commissions[tokenId].offerAddresses.length();\r\n            uint256 tmpI;\r\n            for (uint256 i = 0; i < len; i++) {\r\n                tmpI = commissionAmountLeft;\r\n                if (tmpI > 0) {\r\n                    commissionAmountLeft  = _transferPay(tokenId, _commissions[tokenId].offerAddresses.at(i), commissionToken, tmpI);\r\n                }\r\n                if (commissionAmountLeft == 0) {\r\n                    break;\r\n                }\r\n            }\r\n            \r\n            require(commissionAmountLeft == 0, \"NFT: author's commission should be paid\");\r\n            \r\n            // 'transfer' commission to the author\r\n            bool success = IERC20Upgradeable(commissionToken).transfer(author, commissionAmount);\r\n            require(success, \"NFT: Failed when 'transfer' funds to author\");\r\n        \r\n        }\r\n    }\r\n    \r\n    /**\r\n     * doing one interation to transfer commission from {addr} to this contract and returned {commissionAmountNeedToPay} that need to pay\r\n     * @param tokenId token ID\r\n     * @param addr payer's address \r\n     * @param commissionToken token's address\r\n     * @param commissionAmountNeedToPay left commission that need to pay after transfer\r\n     */\r\n    function _transferPay(\r\n        uint256 tokenId,\r\n        address addr,\r\n        address commissionToken,\r\n        uint256 commissionAmountNeedToPay\r\n    ) \r\n        private\r\n        returns(uint256 commissionAmountLeft)\r\n    {\r\n        uint256 minAmount = (_commissions[tokenId].offerPayAmount[addr]).min(IERC20Upgradeable(commissionToken).allowance(addr, address(this))).min(IERC20Upgradeable(commissionToken).balanceOf(addr));\r\n        if (minAmount > 0) {\r\n            if (minAmount > commissionAmountNeedToPay) {\r\n                minAmount = commissionAmountNeedToPay;\r\n                commissionAmountLeft = 0;\r\n            } else {\r\n                commissionAmountLeft = commissionAmountNeedToPay.sub(minAmount);\r\n            }\r\n            bool success = IERC20Upgradeable(commissionToken).transferFrom(addr, address(this), minAmount);\r\n            require(success, \"NFT: Failed when 'transferFrom' funds\");\r\n            \r\n            _commissions[tokenId].offerPayAmount[addr] = _commissions[tokenId].offerPayAmount[addr].sub(minAmount);\r\n            if (_commissions[tokenId].offerPayAmount[addr] == 0) {\r\n                delete _commissions[tokenId].offerPayAmount[addr];\r\n                _commissions[tokenId].offerAddresses.remove(addr);\r\n            }\r\n            \r\n        }\r\n        \r\n    }\r\n    \r\n    /**\r\n     * return true if {roleName} exist in Community contract for msg.sender\r\n     * @param roleName role name\r\n     */\r\n    function _canRecord(\r\n        string memory roleName\r\n    ) \r\n        private \r\n        view \r\n        returns(bool s)\r\n    {\r\n        s = false;\r\n        if (communitySettings.addr == address(0)) {\r\n            // if the community address set to zero then we must skip the check\r\n            s = true;\r\n        } else {\r\n            string[] memory roles = ICommunity(communitySettings.addr).getRoles(msg.sender);\r\n            for (uint256 i=0; i< roles.length; i++) {\r\n                \r\n                if (keccak256(abi.encodePacked(roleName)) == keccak256(abi.encodePacked(roles[i]))) {\r\n                    s = true;\r\n                }\r\n            }\r\n        }\r\n\r\n    }\r\n    \r\n    \r\n    function _validateReduceCommission(\r\n        uint256 _reduceCommission\r\n    ) \r\n        private \r\n        pure\r\n    {\r\n        require(_reduceCommission >= 0 && _reduceCommission <= 10000, \"NFT: reduceCommission can be in interval [0;10000]\");\r\n    }\r\n        \r\n   \r\n}",
  "sourcePath": "D:\\work\\NonFungibleTokenContract\\contracts\\NFT.sol",
  "compiler": {
    "name": "solc",
    "version": "0.8.3+commit.8d00100c.Emscripten.clang"
  },
  "schemaVersion": "3.4.1",
  "updatedAt": "2021-07-13T07:01:38.403Z",
  "devdoc": {
    "kind": "dev",
    "methods": {
      "approve(address,uint256)": {
        "details": "See {IERC721-approve}."
      },
      "authorOf(uint256)": {
        "params": {
          "tokenId": "token ID"
        }
      },
      "balanceOf(address)": {
        "details": "See {IERC721-balanceOf}."
      },
      "buy(uint256)": {
        "params": {
          "tokenId": "NFT tokenId"
        }
      },
      "buyWithToken(uint256)": {
        "params": {
          "tokenId": "NFT tokenId"
        }
      },
      "claimLostToken(address)": {
        "params": {
          "erc20address": "ERC20 address contract"
        }
      },
      "create(string,(address,uint256,uint256,uint256,uint256,uint256))": {
        "params": {
          "URI": "Token URI",
          "commissionParams": "commission will be send to author when token's owner sell to someone it. See {NFTStruct-CommissionParams}."
        }
      },
      "getApproved(uint256)": {
        "details": "See {IERC721-getApproved}."
      },
      "getCommission(uint256)": {
        "params": {
          "tokenId": "NFT tokenId"
        }
      },
      "initialize(string,string,(address,string))": {
        "params": {
          "communitySettings_": "community setting. See {NFTStruct-CommunitySettings}.",
          "name": "name of token ERC721 ",
          "symbol": "symbol of token ERC721 "
        }
      },
      "isApprovedForAll(address,address)": {
        "details": "See {IERC721-isApprovedForAll}."
      },
      "listForSale(uint256,uint256,address)": {
        "params": {
          "amount": "amount that need to be paid to owner when some1 buy token",
          "consumeToken": "erc20 token. if set address(0) then expected coins to pay for NFT",
          "tokenId": "NFT tokenId"
        }
      },
      "name()": {
        "details": "See {IERC721Metadata-name}."
      },
      "offerToPayCommission(uint256,uint256)": {
        "params": {
          "amount": "amount of token(See {NFTStruct-ComissionSettings-token}) ",
          "tokenId": "NFT tokenId"
        }
      },
      "owner()": {
        "details": "Returns the address of the current owner."
      },
      "ownerOf(uint256)": {
        "details": "See {IERC721-ownerOf}."
      },
      "reduceCommission(uint256,uint256)": {
        "params": {
          "reduceCommissionPercent": "commission in percent. can be in interval [0;10000]",
          "tokenId": "NFT tokenId"
        }
      },
      "removeFromSale(uint256)": {
        "params": {
          "tokenId": "NFT tokenId"
        }
      },
      "renounceOwnership()": {
        "details": "Leaves the contract without owner. It will not be possible to call `onlyOwner` functions anymore. Can only be called by the current owner. NOTE: Renouncing ownership will leave the contract without an owner, thereby removing any functionality that is only available to the owner."
      },
      "safeTransferFrom(address,address,uint256)": {
        "details": "See {IERC721-safeTransferFrom}."
      },
      "safeTransferFrom(address,address,uint256,bytes)": {
        "details": "See {IERC721-safeTransferFrom}."
      },
      "setApprovalForAll(address,bool)": {
        "details": "See {IERC721-setApprovalForAll}."
      },
      "supportsInterface(bytes4)": {
        "details": "See {IERC165-supportsInterface}."
      },
      "symbol()": {
        "details": "See {IERC721Metadata-symbol}."
      },
      "tokenByIndex(uint256)": {
        "details": "See {IERC721Enumerable-tokenByIndex}."
      },
      "tokenOfOwnerByIndex(address,uint256)": {
        "details": "See {IERC721Enumerable-tokenOfOwnerByIndex}."
      },
      "tokensByAuthor(address)": {
        "params": {
          "author": "author's address"
        }
      },
      "totalSupply()": {
        "details": "See {IERC721Enumerable-totalSupply}."
      },
      "transferAuthorship(address,uint256)": {
        "params": {
          "to": "address",
          "tokenId": "token ID"
        }
      },
      "transferFrom(address,address,uint256)": {
        "details": "See {IERC721-transferFrom}."
      },
      "transferOwnership(address)": {
        "details": "Transfers ownership of the contract to a new account (`newOwner`). Can only be called by the current owner."
      }
    },
    "version": 1
  },
  "userdoc": {
    "kind": "user",
    "methods": {
      "buy(uint256)": {
        "notice": "buying token. new owner need to pay for nft by coins. Also payment to author is expected"
      },
      "buyWithToken(uint256)": {
        "notice": "buying token. new owner need to pay for nft by tokens(See {NFTStruct-SalesData-erc20Address}). Also payment to author is expected"
      },
      "claimLostToken(address)": {
        "notice": "contract's owner can claim tokens mistekenly sent to this contract"
      },
      "create(string,(address,uint256,uint256,uint256,uint256,uint256))": {
        "notice": "creation NFT token"
      },
      "getCommission(uint256)": {
        "notice": "returned commission that will be paid to token's author while transferring NFT"
      },
      "listForSale(uint256,uint256,address)": {
        "notice": "put NFT to list for sale. then anyone can buy it"
      },
      "offerToPayCommission(uint256,uint256)": {
        "notice": "anyone can offer to pay commission to any tokens transfer"
      },
      "reduceCommission(uint256,uint256)": {
        "notice": "reduce commission. author can to allow a token transfer for free to setup reduce commission to 10000(100%)"
      },
      "removeFromSale(uint256)": {
        "notice": "remove NFT from list for sale."
      },
      "tokensByAuthor(address)": {
        "notice": "can see all the tokens that an author has."
      }
    },
    "version": 1
  }
}