{
  "contractName": "NFT",
  "abi": [
    {
      "anonymous": false,
      "inputs": [
        {
          "indexed": true,
          "internalType": "address",
          "name": "owner",
          "type": "address"
        },
        {
          "indexed": true,
          "internalType": "address",
          "name": "approved",
          "type": "address"
        },
        {
          "indexed": true,
          "internalType": "uint256",
          "name": "tokenId",
          "type": "uint256"
        }
      ],
      "name": "Approval",
      "type": "event"
    },
    {
      "anonymous": false,
      "inputs": [
        {
          "indexed": true,
          "internalType": "address",
          "name": "owner",
          "type": "address"
        },
        {
          "indexed": true,
          "internalType": "address",
          "name": "operator",
          "type": "address"
        },
        {
          "indexed": false,
          "internalType": "bool",
          "name": "approved",
          "type": "bool"
        }
      ],
      "name": "ApprovalForAll",
      "type": "event"
    },
    {
      "anonymous": false,
      "inputs": [
        {
          "indexed": false,
          "internalType": "address",
          "name": "author",
          "type": "address"
        },
        {
          "indexed": false,
          "internalType": "uint256",
          "name": "tokenId",
          "type": "uint256"
        }
      ],
      "name": "NewTokenAppear",
      "type": "event"
    },
    {
      "anonymous": false,
      "inputs": [
        {
          "indexed": true,
          "internalType": "address",
          "name": "previousOwner",
          "type": "address"
        },
        {
          "indexed": true,
          "internalType": "address",
          "name": "newOwner",
          "type": "address"
        }
      ],
      "name": "OwnershipTransferred",
      "type": "event"
    },
    {
      "anonymous": false,
      "inputs": [
        {
          "indexed": false,
          "internalType": "uint256",
          "name": "tokenId",
          "type": "uint256"
        },
        {
          "indexed": false,
          "internalType": "uint256",
          "name": "amount",
          "type": "uint256"
        }
      ],
      "name": "TokenAddedToSale",
      "type": "event"
    },
    {
      "anonymous": false,
      "inputs": [
        {
          "indexed": false,
          "internalType": "uint256",
          "name": "tokenId",
          "type": "uint256"
        }
      ],
      "name": "TokenRemovedFromSale",
      "type": "event"
    },
    {
      "anonymous": false,
      "inputs": [
        {
          "indexed": true,
          "internalType": "address",
          "name": "from",
          "type": "address"
        },
        {
          "indexed": true,
          "internalType": "address",
          "name": "to",
          "type": "address"
        },
        {
          "indexed": true,
          "internalType": "uint256",
          "name": "tokenId",
          "type": "uint256"
        }
      ],
      "name": "Transfer",
      "type": "event"
    },
    {
      "anonymous": false,
      "inputs": [
        {
          "indexed": true,
          "internalType": "address",
          "name": "from",
          "type": "address"
        },
        {
          "indexed": true,
          "internalType": "address",
          "name": "to",
          "type": "address"
        },
        {
          "indexed": true,
          "internalType": "uint256",
          "name": "tokenId",
          "type": "uint256"
        }
      ],
      "name": "TransferAuthorship",
      "type": "event"
    },
    {
      "inputs": [
        {
          "internalType": "address",
          "name": "to",
          "type": "address"
        },
        {
          "internalType": "uint256",
          "name": "tokenId",
          "type": "uint256"
        }
      ],
      "name": "approve",
      "outputs": [],
      "stateMutability": "nonpayable",
      "type": "function"
    },
    {
      "inputs": [
        {
          "internalType": "uint256",
          "name": "tokenId",
          "type": "uint256"
        }
      ],
      "name": "authorOf",
      "outputs": [
        {
          "internalType": "address",
          "name": "",
          "type": "address"
        }
      ],
      "stateMutability": "view",
      "type": "function"
    },
    {
      "inputs": [
        {
          "internalType": "address",
          "name": "owner",
          "type": "address"
        }
      ],
      "name": "balanceOf",
      "outputs": [
        {
          "internalType": "uint256",
          "name": "",
          "type": "uint256"
        }
      ],
      "stateMutability": "view",
      "type": "function"
    },
    {
      "inputs": [
        {
          "internalType": "uint256",
          "name": "tokenId",
          "type": "uint256"
        }
      ],
      "name": "getApproved",
      "outputs": [
        {
          "internalType": "address",
          "name": "",
          "type": "address"
        }
      ],
      "stateMutability": "view",
      "type": "function"
    },
    {
      "inputs": [
        {
          "internalType": "address",
          "name": "owner",
          "type": "address"
        },
        {
          "internalType": "address",
          "name": "operator",
          "type": "address"
        }
      ],
      "name": "isApprovedForAll",
      "outputs": [
        {
          "internalType": "bool",
          "name": "",
          "type": "bool"
        }
      ],
      "stateMutability": "view",
      "type": "function"
    },
    {
      "inputs": [],
      "name": "name",
      "outputs": [
        {
          "internalType": "string",
          "name": "",
          "type": "string"
        }
      ],
      "stateMutability": "view",
      "type": "function"
    },
    {
      "inputs": [],
      "name": "owner",
      "outputs": [
        {
          "internalType": "address",
          "name": "",
          "type": "address"
        }
      ],
      "stateMutability": "view",
      "type": "function"
    },
    {
      "inputs": [
        {
          "internalType": "uint256",
          "name": "tokenId",
          "type": "uint256"
        }
      ],
      "name": "ownerOf",
      "outputs": [
        {
          "internalType": "address",
          "name": "",
          "type": "address"
        }
      ],
      "stateMutability": "view",
      "type": "function"
    },
    {
      "inputs": [],
      "name": "renounceOwnership",
      "outputs": [],
      "stateMutability": "nonpayable",
      "type": "function"
    },
    {
      "inputs": [
        {
          "internalType": "address",
          "name": "from",
          "type": "address"
        },
        {
          "internalType": "address",
          "name": "to",
          "type": "address"
        },
        {
          "internalType": "uint256",
          "name": "tokenId",
          "type": "uint256"
        }
      ],
      "name": "safeTransferFrom",
      "outputs": [],
      "stateMutability": "nonpayable",
      "type": "function"
    },
    {
      "inputs": [
        {
          "internalType": "address",
          "name": "from",
          "type": "address"
        },
        {
          "internalType": "address",
          "name": "to",
          "type": "address"
        },
        {
          "internalType": "uint256",
          "name": "tokenId",
          "type": "uint256"
        },
        {
          "internalType": "bytes",
          "name": "_data",
          "type": "bytes"
        }
      ],
      "name": "safeTransferFrom",
      "outputs": [],
      "stateMutability": "nonpayable",
      "type": "function"
    },
    {
      "inputs": [
        {
          "internalType": "address",
          "name": "operator",
          "type": "address"
        },
        {
          "internalType": "bool",
          "name": "approved",
          "type": "bool"
        }
      ],
      "name": "setApprovalForAll",
      "outputs": [],
      "stateMutability": "nonpayable",
      "type": "function"
    },
    {
      "inputs": [
        {
          "internalType": "bytes4",
          "name": "interfaceId",
          "type": "bytes4"
        }
      ],
      "name": "supportsInterface",
      "outputs": [
        {
          "internalType": "bool",
          "name": "",
          "type": "bool"
        }
      ],
      "stateMutability": "view",
      "type": "function"
    },
    {
      "inputs": [],
      "name": "symbol",
      "outputs": [
        {
          "internalType": "string",
          "name": "",
          "type": "string"
        }
      ],
      "stateMutability": "view",
      "type": "function"
    },
    {
      "inputs": [
        {
          "internalType": "uint256",
          "name": "index",
          "type": "uint256"
        }
      ],
      "name": "tokenByIndex",
      "outputs": [
        {
          "internalType": "uint256",
          "name": "",
          "type": "uint256"
        }
      ],
      "stateMutability": "view",
      "type": "function"
    },
    {
      "inputs": [
        {
          "internalType": "address",
          "name": "owner",
          "type": "address"
        },
        {
          "internalType": "uint256",
          "name": "index",
          "type": "uint256"
        }
      ],
      "name": "tokenOfOwnerByIndex",
      "outputs": [
        {
          "internalType": "uint256",
          "name": "",
          "type": "uint256"
        }
      ],
      "stateMutability": "view",
      "type": "function"
    },
    {
      "inputs": [
        {
          "internalType": "uint256",
          "name": "tokenId",
          "type": "uint256"
        }
      ],
      "name": "tokenURI",
      "outputs": [
        {
          "internalType": "string",
          "name": "",
          "type": "string"
        }
      ],
      "stateMutability": "view",
      "type": "function"
    },
    {
      "inputs": [
        {
          "internalType": "address",
          "name": "author",
          "type": "address"
        }
      ],
      "name": "tokensByAuthor",
      "outputs": [
        {
          "internalType": "uint256[]",
          "name": "",
          "type": "uint256[]"
        }
      ],
      "stateMutability": "view",
      "type": "function"
    },
    {
      "inputs": [],
      "name": "totalSupply",
      "outputs": [
        {
          "internalType": "uint256",
          "name": "",
          "type": "uint256"
        }
      ],
      "stateMutability": "view",
      "type": "function"
    },
    {
      "inputs": [
        {
          "internalType": "address",
          "name": "to",
          "type": "address"
        },
        {
          "internalType": "uint256",
          "name": "tokenId",
          "type": "uint256"
        }
      ],
      "name": "transferAuthorship",
      "outputs": [],
      "stateMutability": "nonpayable",
      "type": "function"
    },
    {
      "inputs": [
        {
          "internalType": "address",
          "name": "from",
          "type": "address"
        },
        {
          "internalType": "address",
          "name": "to",
          "type": "address"
        },
        {
          "internalType": "uint256",
          "name": "tokenId",
          "type": "uint256"
        }
      ],
      "name": "transferFrom",
      "outputs": [],
      "stateMutability": "nonpayable",
      "type": "function"
    },
    {
      "inputs": [
        {
          "internalType": "address",
          "name": "newOwner",
          "type": "address"
        }
      ],
      "name": "transferOwnership",
      "outputs": [],
      "stateMutability": "nonpayable",
      "type": "function"
    },
    {
      "inputs": [
        {
          "internalType": "string",
          "name": "name",
          "type": "string"
        },
        {
          "internalType": "string",
          "name": "symbol",
          "type": "string"
        },
        {
          "components": [
            {
              "internalType": "address",
              "name": "addr",
              "type": "address"
            },
            {
              "internalType": "string",
              "name": "roleMint",
              "type": "string"
            }
          ],
          "internalType": "struct NFTStruct.CommunitySettings",
          "name": "communitySettings_",
          "type": "tuple"
        }
      ],
      "name": "initialize",
      "outputs": [],
      "stateMutability": "nonpayable",
      "type": "function"
    },
    {
      "inputs": [
        {
          "internalType": "string",
          "name": "URI",
          "type": "string"
        },
        {
          "components": [
            {
              "internalType": "address",
              "name": "token",
              "type": "address"
            },
            {
              "internalType": "uint256",
              "name": "amount",
              "type": "uint256"
            },
            {
              "internalType": "uint256",
              "name": "multiply",
              "type": "uint256"
            },
            {
              "internalType": "uint256",
              "name": "intervalSeconds",
              "type": "uint256"
            }
          ],
          "internalType": "struct NFTStruct.CommissionParams",
          "name": "commissionParams",
          "type": "tuple"
        }
      ],
      "name": "create",
      "outputs": [],
      "stateMutability": "nonpayable",
      "type": "function"
    },
    {
      "inputs": [
        {
          "internalType": "uint256",
          "name": "tokenId",
          "type": "uint256"
        }
      ],
      "name": "getCommission",
      "outputs": [
        {
          "internalType": "address",
          "name": "t",
          "type": "address"
        },
        {
          "internalType": "uint256",
          "name": "r",
          "type": "uint256"
        }
      ],
      "stateMutability": "view",
      "type": "function"
    },
    {
      "inputs": [
        {
          "internalType": "address",
          "name": "erc20address",
          "type": "address"
        }
      ],
      "name": "claimLostToken",
      "outputs": [],
      "stateMutability": "nonpayable",
      "type": "function"
    },
    {
      "inputs": [
        {
          "internalType": "uint256",
          "name": "tokenId",
          "type": "uint256"
        },
        {
          "internalType": "uint256",
          "name": "amount",
          "type": "uint256"
        }
      ],
      "name": "listForSale",
      "outputs": [],
      "stateMutability": "nonpayable",
      "type": "function"
    },
    {
      "inputs": [
        {
          "internalType": "uint256",
          "name": "tokenId",
          "type": "uint256"
        }
      ],
      "name": "removeFromSale",
      "outputs": [],
      "stateMutability": "nonpayable",
      "type": "function"
    },
    {
      "inputs": [
        {
          "internalType": "uint256",
          "name": "tokenId",
          "type": "uint256"
        }
      ],
      "name": "buy",
      "outputs": [],
      "stateMutability": "payable",
      "type": "function"
    },
    {
      "inputs": [
        {
          "internalType": "uint256",
          "name": "tokenId",
          "type": "uint256"
        },
        {
          "internalType": "uint256",
          "name": "amount",
          "type": "uint256"
        }
      ],
      "name": "offerToPayCommission",
      "outputs": [],
      "stateMutability": "nonpayable",
      "type": "function"
    }
  ],
  "bytecode": "0x608060405234801561001057600080fd5b5061734280620000216000396000f3fe6080604052600436106101cd5760003560e01c8063571733ab116100f757806395d89b4111610095578063d96a094a11610064578063d96a094a146106bb578063e80d7fec146106d7578063e985e9c514610700578063f2fde38b1461073d576101cd565b806395d89b4114610601578063a22cb4651461062c578063b88d4fde14610655578063c87b56dd1461067e576101cd565b806370a08231116100d157806370a0823114610559578063715018a614610596578063870eac84146105ad5780638da5cb5b146105d6576101cd565b8063571733ab146104b65780635fb5b909146104f35780636352211e1461051c576101cd565b8063207b24601161016f5780633da63e071161013e5780633da63e07146103fe57806342842e0e146104275780634c9ddbba146104505780634f6ccce714610479576101cd565b8063207b24601461033157806323b872dd1461035a5780632f745c59146103835780633c8bccd9146103c0576101cd565b8063081812fc116101ab578063081812fc14610277578063095ea7b3146102b45780631361a3b6146102dd57806318160ddd14610306576101cd565b806301c7aa9b146101d257806301ffc9a71461020f57806306fdde031461024c575b600080fd5b3480156101de57600080fd5b506101f960048036038101906101f4919061524b565b610766565b6040516102069190615e11565b60405180910390f35b34801561021b57600080fd5b506102366004803603810190610231919061545c565b6108e5565b6040516102439190615e33565b60405180910390f35b34801561025857600080fd5b5061026161095f565b60405161026e9190615e4e565b60405180910390f35b34801561028357600080fd5b5061029e60048036038101906102999190615599565b6109f1565b6040516102ab9190615d21565b60405180910390f35b3480156102c057600080fd5b506102db60048036038101906102d691906153b6565b610a76565b005b3480156102e957600080fd5b5061030460048036038101906102ff9190615599565b610b8e565b005b34801561031257600080fd5b5061031b610c77565b6040516103289190616330565b60405180910390f35b34801561033d57600080fd5b50610358600480360381019061035391906153b6565b610c84565b005b34801561036657600080fd5b50610381600480360381019061037c91906152b0565b610dd9565b005b34801561038f57600080fd5b506103aa60048036038101906103a591906153b6565b610e39565b6040516103b79190616330565b60405180910390f35b3480156103cc57600080fd5b506103e760048036038101906103e29190615599565b610ede565b6040516103f5929190615de8565b60405180910390f35b34801561040a57600080fd5b50610425600480360381019061042091906155eb565b610ef7565b005b34801561043357600080fd5b5061044e600480360381019061044991906152b0565b6110a9565b005b34801561045c57600080fd5b5061047760048036038101906104729190615545565b6110c9565b005b34801561048557600080fd5b506104a0600480360381019061049b9190615599565b611380565b6040516104ad9190616330565b60405180910390f35b3480156104c257600080fd5b506104dd60048036038101906104d89190615599565b611417565b6040516104ea9190615d21565b60405180910390f35b3480156104ff57600080fd5b5061051a6004803603810190610515919061524b565b61149e565b005b34801561052857600080fd5b50610543600480360381019061053e9190615599565b6116c7565b6040516105509190615d21565b60405180910390f35b34801561056557600080fd5b50610580600480360381019061057b919061524b565b611779565b60405161058d9190616330565b60405180910390f35b3480156105a257600080fd5b506105ab611831565b005b3480156105b957600080fd5b506105d460048036038101906105cf91906154ae565b611970565b005b3480156105e257600080fd5b506105eb611ac9565b6040516105f89190615d21565b60405180910390f35b34801561060d57600080fd5b50610616611af4565b6040516106239190615e4e565b60405180910390f35b34801561063857600080fd5b50610653600480360381019061064e919061537a565b611b86565b005b34801561066157600080fd5b5061067c600480360381019061067791906152ff565b611d07565b005b34801561068a57600080fd5b506106a560048036038101906106a09190615599565b611d69565b6040516106b29190615e4e565b60405180910390f35b6106d560048036038101906106d09190615599565b611d7b565b005b3480156106e357600080fd5b506106fe60048036038101906106f991906155eb565b6120c3565b005b34801561070c57600080fd5b5061072760048036038101906107229190615274565b6121cb565b6040516107349190615e33565b60405180910390f35b34801561074957600080fd5b50610764600480360381019061075f919061524b565b61225f565b005b606060006107b160fc60008573ffffffffffffffffffffffffffffffffffffffff1673ffffffffffffffffffffffffffffffffffffffff16815260200190815260200160002061240d565b905060008167ffffffffffffffff8111156107f5577f4e487b7100000000000000000000000000000000000000000000000000000000600052604160045260246000fd5b6040519080825280602002602001820160405280156108235781602001602082028036833780820191505090505b50905060005b828110156108da576108828160fc60008873ffffffffffffffffffffffffffffffffffffffff1673ffffffffffffffffffffffffffffffffffffffff16815260200190815260200160002061242290919063ffffffff16565b8282815181106108bb577f4e487b7100000000000000000000000000000000000000000000000000000000600052603260045260246000fd5b60200260200101818152505080806108d2906166dc565b915050610829565b508092505050919050565b60007f780e9d63000000000000000000000000000000000000000000000000000000007bffffffffffffffffffffffffffffffffffffffffffffffffffffffff1916827bffffffffffffffffffffffffffffffffffffffffffffffffffffffff1916148061095857506109578261243c565b5b9050919050565b60606065805461096e90616679565b80601f016020809104026020016040519081016040528092919081815260200182805461099a90616679565b80156109e75780601f106109bc576101008083540402835291602001916109e7565b820191906000526020600020905b8154815290600101906020018083116109ca57829003601f168201915b5050505050905090565b60006109fc826124b6565b610a3b576040517f08c379a0000000000000000000000000000000000000000000000000000000008152600401610a3290616170565b60405180910390fd5b6069600083815260200190815260200160002060009054906101000a900473ffffffffffffffffffffffffffffffffffffffff169050919050565b6000610a81826116c7565b90508073ffffffffffffffffffffffffffffffffffffffff168373ffffffffffffffffffffffffffffffffffffffff161415610af2576040517f08c379a0000000000000000000000000000000000000000000000000000000008152600401610ae990616250565b60405180910390fd5b8073ffffffffffffffffffffffffffffffffffffffff16610b11612522565b73ffffffffffffffffffffffffffffffffffffffff161480610b405750610b3f81610b3a612522565b6121cb565b5b610b7f576040517f08c379a0000000000000000000000000000000000000000000000000000000008152600401610b7690616050565b60405180910390fd5b610b89838361252a565b505050565b80610b98816116c7565b73ffffffffffffffffffffffffffffffffffffffff16610bb6612522565b73ffffffffffffffffffffffffffffffffffffffff1614610c0c576040517f08c379a0000000000000000000000000000000000000000000000000000000008152600401610c0390615ef0565b60405180910390fd5b6000610165600084815260200190815260200160002060040160006101000a81548160ff0219169083151502179055507fccd0b7af52bf5f08ec6781299e66283301e612d1ca1ffceab3579a6364073c3082604051610c6b9190616330565b60405180910390a15050565b600060cb80549050905090565b6000610c8f82611417565b90508073ffffffffffffffffffffffffffffffffffffffff163373ffffffffffffffffffffffffffffffffffffffff1614610cff576040517f08c379a0000000000000000000000000000000000000000000000000000000008152600401610cf690616190565b60405180910390fd5b8073ffffffffffffffffffffffffffffffffffffffff168373ffffffffffffffffffffffffffffffffffffffff161415610d6e576040517f08c379a0000000000000000000000000000000000000000000000000000000008152600401610d6590616030565b60405180910390fd5b610d798282856125e3565b818373ffffffffffffffffffffffffffffffffffffffff168273ffffffffffffffffffffffffffffffffffffffff167f8d9ce12bb12e6e3e62f9ef6b9a7250c5c13f95cdb4d832735ce44e2757aa5ae860405160405180910390a4505050565b610dea610de4612522565b826126de565b610e29576040517f08c379a0000000000000000000000000000000000000000000000000000000008152600401610e2090616270565b60405180910390fd5b610e348383836127bc565b505050565b6000610e4483611779565b8210610e85576040517f08c379a0000000000000000000000000000000000000000000000000000000008152600401610e7c90615eb0565b60405180910390fd5b60c960008473ffffffffffffffffffffffffffffffffffffffff1673ffffffffffffffffffffffffffffffffffffffff168152602001908152602001600020600083815260200190815260200160002054905092915050565b600080610eea83612a36565b8092508193505050915091565b610f00826124b6565b610f3f576040517f08c379a0000000000000000000000000000000000000000000000000000000008152600401610f3690616310565b60405180910390fd5b600081141561101357610f78610f53612522565b6101656000858152602001908152602001600020600101612b8590919063ffffffff16565b1561100e57610fad610f88612522565b6101656000858152602001908152602001600020600101612bb590919063ffffffff16565b5061016560008381526020019081526020016000206000016000610fcf612522565b73ffffffffffffffffffffffffffffffffffffffff1673ffffffffffffffffffffffffffffffffffffffff168152602001908152602001600020600090555b6110a5565b8061016560008481526020019081526020016000206000016000611035612522565b73ffffffffffffffffffffffffffffffffffffffff1673ffffffffffffffffffffffffffffffffffffffff168152602001908152602001600020819055506110a361107e612522565b6101656000858152602001908152602001600020600101612be590919063ffffffff16565b505b5050565b6110c483838360405180602001604052806000815250611d07565b505050565b61016260010180546110da90616679565b80601f016020809104026020016040519081016040528092919081815260200182805461110690616679565b80156111535780601f1061112857610100808354040283529160200191611153565b820191906000526020600020905b81548152906001019060200180831161113657829003601f168201915b5050505050600061116382612c15565b905060011515811515146111ac576040517f08c379a00000000000000000000000000000000000000000000000000000000081526004016111a390616010565b60405180910390fd5b60006111b9610161612df2565b90507fbd8fc82302267914ccd7d174afff47c76839d025f538845cbd49bdf675d340216111e4612522565b826040516111f3929190615de8565b60405180910390a16112053382612e00565b61120f8186612e1e565b600073ffffffffffffffffffffffffffffffffffffffff16846000015173ffffffffffffffffffffffffffffffffffffffff161415611283576040517f08c379a000000000000000000000000000000000000000000000000000000000815260040161127a90615fd0565b60405180910390fd5b8360000151610164600083815260200190815260200160002060000160006101000a81548173ffffffffffffffffffffffffffffffffffffffff021916908373ffffffffffffffffffffffffffffffffffffffff16021790555083602001516101646000838152602001908152602001600020600101819055506000846040015114611313578360400151611317565b6127105b610164600083815260200190815260200160002060020181905550836060015161016460008381526020019081526020016000206003018190555042610164600083815260200190815260200160002060040181905550611379610161612e92565b5050505050565b600061138a610c77565b82106113cb576040517f08c379a00000000000000000000000000000000000000000000000000000000081526004016113c290616290565b60405180910390fd5b60cb8281548110611405577f4e487b7100000000000000000000000000000000000000000000000000000000600052603260045260246000fd5b90600052602060002001549050919050565b60008061142383612ea8565b9050600073ffffffffffffffffffffffffffffffffffffffff168173ffffffffffffffffffffffffffffffffffffffff161415611495576040517f08c379a000000000000000000000000000000000000000000000000000000000815260040161148c90615e90565b60405180910390fd5b80915050919050565b6114a6612522565b73ffffffffffffffffffffffffffffffffffffffff166114c4611ac9565b73ffffffffffffffffffffffffffffffffffffffff161461151a576040517f08c379a0000000000000000000000000000000000000000000000000000000008152600401611511906161b0565b60405180910390fd5b60008173ffffffffffffffffffffffffffffffffffffffff166370a08231306040518263ffffffff1660e01b81526004016115559190615d21565b60206040518083038186803b15801561156d57600080fd5b505afa158015611581573d6000803e3d6000fd5b505050506040513d601f19601f820116820180604052508101906115a591906155c2565b9050600081116115ea576040517f08c379a00000000000000000000000000000000000000000000000000000000081526004016115e190616110565b60405180910390fd5b60008273ffffffffffffffffffffffffffffffffffffffff1663a9059cbb611610612522565b846040518363ffffffff1660e01b815260040161162e929190615de8565b602060405180830381600087803b15801561164857600080fd5b505af115801561165c573d6000803e3d6000fd5b505050506040513d601f19601f820116820180604052508101906116809190615433565b9050806116c2576040517f08c379a00000000000000000000000000000000000000000000000000000000081526004016116b990616210565b60405180910390fd5b505050565b6000806067600084815260200190815260200160002060009054906101000a900473ffffffffffffffffffffffffffffffffffffffff169050600073ffffffffffffffffffffffffffffffffffffffff168173ffffffffffffffffffffffffffffffffffffffff161415611770576040517f08c379a000000000000000000000000000000000000000000000000000000000815260040161176790616090565b60405180910390fd5b80915050919050565b60008073ffffffffffffffffffffffffffffffffffffffff168273ffffffffffffffffffffffffffffffffffffffff1614156117ea576040517f08c379a00000000000000000000000000000000000000000000000000000000081526004016117e190616070565b60405180910390fd5b606860008373ffffffffffffffffffffffffffffffffffffffff1673ffffffffffffffffffffffffffffffffffffffff168152602001908152602001600020549050919050565b611839612522565b73ffffffffffffffffffffffffffffffffffffffff16611857611ac9565b73ffffffffffffffffffffffffffffffffffffffff16146118ad576040517f08c379a00000000000000000000000000000000000000000000000000000000081526004016118a4906161b0565b60405180910390fd5b600073ffffffffffffffffffffffffffffffffffffffff1661012f60009054906101000a900473ffffffffffffffffffffffffffffffffffffffff1673ffffffffffffffffffffffffffffffffffffffff167f8be0079c531659141344cd1fd0a4f28419497f9722a3daafe3b4186f6b6457e060405160405180910390a3600061012f60006101000a81548173ffffffffffffffffffffffffffffffffffffffff021916908373ffffffffffffffffffffffffffffffffffffffff160217905550565b600060019054906101000a900460ff1680611996575060008054906101000a900460ff16155b6119d5576040517f08c379a00000000000000000000000000000000000000000000000000000000081526004016119cc906160f0565b60405180910390fd5b60008060019054906101000a900460ff161590508015611a25576001600060016101000a81548160ff02191690831515021790555060016000806101000a81548160ff0219169083151502179055505b611a2d612ee5565b611a378484612fce565b8161016260008201518160000160006101000a81548173ffffffffffffffffffffffffffffffffffffffff021916908373ffffffffffffffffffffffffffffffffffffffff1602179055506020820151816001019080519060200190611a9e929190614e7e565b509050508015611ac35760008060016101000a81548160ff0219169083151502179055505b50505050565b600061012f60009054906101000a900473ffffffffffffffffffffffffffffffffffffffff16905090565b606060668054611b0390616679565b80601f0160208091040260200160405190810160405280929190818152602001828054611b2f90616679565b8015611b7c5780601f10611b5157610100808354040283529160200191611b7c565b820191906000526020600020905b815481529060010190602001808311611b5f57829003601f168201915b5050505050905090565b611b8e612522565b73ffffffffffffffffffffffffffffffffffffffff168273ffffffffffffffffffffffffffffffffffffffff161415611bfc576040517f08c379a0000000000000000000000000000000000000000000000000000000008152600401611bf390615fb0565b60405180910390fd5b80606a6000611c09612522565b73ffffffffffffffffffffffffffffffffffffffff1673ffffffffffffffffffffffffffffffffffffffff16815260200190815260200160002060008473ffffffffffffffffffffffffffffffffffffffff1673ffffffffffffffffffffffffffffffffffffffff16815260200190815260200160002060006101000a81548160ff0219169083151502179055508173ffffffffffffffffffffffffffffffffffffffff16611cb6612522565b73ffffffffffffffffffffffffffffffffffffffff167f17307eab39ab6107e8899845ad3d59bd9653f200f220920489ca2b5937696c3183604051611cfb9190615e33565b60405180910390a35050565b611d18611d12612522565b836126de565b611d57576040517f08c379a0000000000000000000000000000000000000000000000000000000008152600401611d4e90616270565b60405180910390fd5b611d63848484846130bb565b50505050565b6060611d7482613117565b9050919050565b600260fd541415611dc1576040517f08c379a0000000000000000000000000000000000000000000000000000000008152600401611db8906162f0565b60405180910390fd5b600260fd819055508060011515610165600083815260200190815260200160002060040160009054906101000a900460ff16151514611e35576040517f08c379a0000000000000000000000000000000000000000000000000000000008152600401611e2c90615f50565b60405180910390fd5b611e3e826124b6565b611e7d576040517f08c379a0000000000000000000000000000000000000000000000000000000008152600401611e7490616310565b60405180910390fd5b600080349050610165600085815260200190815260200160002060030154811015611edd576040517f08c379a0000000000000000000000000000000000000000000000000000000008152600401611ed4906160d0565b60405180910390fd5b6000611f096101656000878152602001908152602001600020600301548361326990919063ffffffff16565b90506000811115611fc857611f1c612522565b73ffffffffffffffffffffffffffffffffffffffff1681604051611f3f90615d0c565b60006040518083038185875af1925050503d8060008114611f7c576040519150601f19603f3d011682016040523d82523d6000602084013e611f81565b606091505b50508093505082611fc7576040517f08c379a0000000000000000000000000000000000000000000000000000000008152600401611fbe90615f70565b60405180910390fd5b5b6000611fd3866116c7565b9050611fe781611fe1612522565b886127bc565b8073ffffffffffffffffffffffffffffffffffffffff1661016560008881526020019081526020016000206003015460405161202290615d0c565b60006040518083038185875af1925050503d806000811461205f576040519150601f19603f3d011682016040523d82523d6000602084013e612064565b606091505b505080945050836120aa576040517f08c379a00000000000000000000000000000000000000000000000000000000081526004016120a1906162b0565b60405180910390fd5b6120b386610b8e565b5050505050600160fd8190555050565b816120cd816116c7565b73ffffffffffffffffffffffffffffffffffffffff166120eb612522565b73ffffffffffffffffffffffffffffffffffffffff1614612141576040517f08c379a000000000000000000000000000000000000000000000000000000000815260040161213890615ef0565b60405180910390fd5b816101656000858152602001908152602001600020600301819055506001610165600085815260200190815260200160002060040160006101000a81548160ff0219169083151502179055507fb22847a81ba2f3791bebe75c2e10b2e51dc01d8dcdb114da5d0fc6a0e4826f6b83836040516121be92919061634b565b60405180910390a1505050565b6000606a60008473ffffffffffffffffffffffffffffffffffffffff1673ffffffffffffffffffffffffffffffffffffffff16815260200190815260200160002060008373ffffffffffffffffffffffffffffffffffffffff1673ffffffffffffffffffffffffffffffffffffffff16815260200190815260200160002060009054906101000a900460ff16905092915050565b612267612522565b73ffffffffffffffffffffffffffffffffffffffff16612285611ac9565b73ffffffffffffffffffffffffffffffffffffffff16146122db576040517f08c379a00000000000000000000000000000000000000000000000000000000081526004016122d2906161b0565b60405180910390fd5b600073ffffffffffffffffffffffffffffffffffffffff168173ffffffffffffffffffffffffffffffffffffffff16141561234b576040517f08c379a000000000000000000000000000000000000000000000000000000000815260040161234290615f10565b60405180910390fd5b8073ffffffffffffffffffffffffffffffffffffffff1661012f60009054906101000a900473ffffffffffffffffffffffffffffffffffffffff1673ffffffffffffffffffffffffffffffffffffffff167f8be0079c531659141344cd1fd0a4f28419497f9722a3daafe3b4186f6b6457e060405160405180910390a38061012f60006101000a81548173ffffffffffffffffffffffffffffffffffffffff021916908373ffffffffffffffffffffffffffffffffffffffff16021790555050565b600061241b8260000161327f565b9050919050565b60006124318360000183613290565b60001c905092915050565b60007f780e9d63000000000000000000000000000000000000000000000000000000007bffffffffffffffffffffffffffffffffffffffffffffffffffffffff1916827bffffffffffffffffffffffffffffffffffffffffffffffffffffffff191614806124af57506124ae8261332a565b5b9050919050565b60008073ffffffffffffffffffffffffffffffffffffffff166067600084815260200190815260200160002060009054906101000a900473ffffffffffffffffffffffffffffffffffffffff1673ffffffffffffffffffffffffffffffffffffffff1614159050919050565b600033905090565b816069600083815260200190815260200160002060006101000a81548173ffffffffffffffffffffffffffffffffffffffff021916908373ffffffffffffffffffffffffffffffffffffffff160217905550808273ffffffffffffffffffffffffffffffffffffffff1661259d836116c7565b73ffffffffffffffffffffffffffffffffffffffff167f8c5be1e5ebec7d5bd14f71427d1e84f3dd0314c0f7b2291e5b200ac8c7c3b92560405160405180910390a45050565b8060fb600085815260200190815260200160002060006101000a81548173ffffffffffffffffffffffffffffffffffffffff021916908373ffffffffffffffffffffffffffffffffffffffff1602179055506126868360fc60008573ffffffffffffffffffffffffffffffffffffffff1673ffffffffffffffffffffffffffffffffffffffff16815260200190815260200160002061340c90919063ffffffff16565b506126d88360fc60008473ffffffffffffffffffffffffffffffffffffffff1673ffffffffffffffffffffffffffffffffffffffff16815260200190815260200160002061342690919063ffffffff16565b50505050565b60006126e9826124b6565b612728576040517f08c379a000000000000000000000000000000000000000000000000000000000815260040161271f90615ff0565b60405180910390fd5b6000612733836116c7565b90508073ffffffffffffffffffffffffffffffffffffffff168473ffffffffffffffffffffffffffffffffffffffff1614806127a257508373ffffffffffffffffffffffffffffffffffffffff1661278a846109f1565b73ffffffffffffffffffffffffffffffffffffffff16145b806127b357506127b281856121cb565b5b91505092915050565b60006127c782611417565b905060006127d4836116c7565b90506000806127e285612a36565b8092508193505050600073ffffffffffffffffffffffffffffffffffffffff168473ffffffffffffffffffffffffffffffffffffffff1614806128255750600081145b1561282f57612a22565b600081905061285d846101656000898152602001908152602001600020600101612b8590919063ffffffff16565b156128715761286e86858584613440565b90505b600061289261016560008981526020019081526020016000206001016136e1565b9050600080600090505b828110156129085783915060008211156128e7576128e4896128dd8361016560008e81526020019081526020016000206001016136f690919063ffffffff16565b8885613440565b93505b60008414156128f557612908565b8080612900906166dc565b91505061289c565b506000831461294c576040517f08c379a0000000000000000000000000000000000000000000000000000000008152600401612943906161d0565b60405180910390fd5b60008573ffffffffffffffffffffffffffffffffffffffff1663a9059cbb89876040518363ffffffff1660e01b8152600401612989929190615de8565b602060405180830381600087803b1580156129a357600080fd5b505af11580156129b7573d6000803e3d6000fd5b505050506040513d601f19601f820116820180604052508101906129db9190615433565b905080612a1d576040517f08c379a0000000000000000000000000000000000000000000000000000000008152600401612a14906162d0565b60405180910390fd5b505050505b612a2d878787613710565b50505050505050565b6000806101646000848152602001908152602001600020600101549050610164600084815260200190815260200160002060000160009054906101000a900473ffffffffffffffffffffffffffffffffffffffff1691506000811415612a9b57612b80565b6127106101646000858152602001908152602001600020600201541415612ac157612b7f565b6000612aed6101646000868152602001908152602001600020600401544261326990919063ffffffff16565b90506000612b1b6101646000878152602001908152602001600020600301548361396c90919063ffffffff16565b905060005b81811015612b7b57612b66612710612b5861016460008a8152602001908152602001600020600201548761398290919063ffffffff16565b61396c90919063ffffffff16565b93508080612b73906166dc565b915050612b20565b5050505b5b915091565b6000612bad836000018373ffffffffffffffffffffffffffffffffffffffff1660001b613998565b905092915050565b6000612bdd836000018373ffffffffffffffffffffffffffffffffffffffff1660001b6139bb565b905092915050565b6000612c0d836000018373ffffffffffffffffffffffffffffffffffffffff1660001b613b39565b905092915050565b60008073ffffffffffffffffffffffffffffffffffffffff1661016260000160009054906101000a900473ffffffffffffffffffffffffffffffffffffffff1673ffffffffffffffffffffffffffffffffffffffff161415612c7a5760019050612ded565b600061016260000160009054906101000a900473ffffffffffffffffffffffffffffffffffffffff1673ffffffffffffffffffffffffffffffffffffffff1663ce6ccfaf336040518263ffffffff1660e01b8152600401612cdb9190615d21565b60006040518083038186803b158015612cf357600080fd5b505afa158015612d07573d6000803e3d6000fd5b505050506040513d6000823e3d601f19601f82011682018060405250810190612d3091906153f2565b905060005b8151811015612dea57818181518110612d77577f4e487b7100000000000000000000000000000000000000000000000000000000600052603260045260246000fd5b6020026020010151604051602001612d8f9190615cd1565b6040516020818303038152906040528051906020012084604051602001612db69190615cd1565b604051602081830303815290604052805190602001201415612dd757600192505b8080612de2906166dc565b915050612d35565b50505b919050565b600081600001549050919050565b612e1a828260405180602001604052806000815250613ba9565b5050565b612e27826124b6565b612e66576040517f08c379a0000000000000000000000000000000000000000000000000000000008152600401612e5d906160b0565b60405180910390fd5b80609760008481526020019081526020016000209080519060200190612e8d929190614e7e565b505050565b6001816000016000828254019250508190555050565b600060fb600083815260200190815260200160002060009054906101000a900473ffffffffffffffffffffffffffffffffffffffff169050919050565b600060019054906101000a900460ff1680612f0b575060008054906101000a900460ff16155b612f4a576040517f08c379a0000000000000000000000000000000000000000000000000000000008152600401612f41906160f0565b60405180910390fd5b60008060019054906101000a900460ff161590508015612f9a576001600060016101000a81548160ff02191690831515021790555060016000806101000a81548160ff0219169083151502179055505b612fa2613c04565b612faa613cdd565b8015612fcb5760008060016101000a81548160ff0219169083151502179055505b50565b600060019054906101000a900460ff1680612ff4575060008054906101000a900460ff16155b613033576040517f08c379a000000000000000000000000000000000000000000000000000000000815260040161302a906160f0565b60405180910390fd5b60008060019054906101000a900460ff161590508015613083576001600060016101000a81548160ff02191690831515021790555060016000806101000a81548160ff0219169083151502179055505b61308b613e60565b6130958383613f51565b80156130b65760008060016101000a81548160ff0219169083151502179055505b505050565b6130c68484846127bc565b6130d284848484614046565b613111576040517f08c379a000000000000000000000000000000000000000000000000000000000815260040161310890615ed0565b60405180910390fd5b50505050565b6060613122826124b6565b613161576040517f08c379a000000000000000000000000000000000000000000000000000000000815260040161315890616150565b60405180910390fd5b600060976000848152602001908152602001600020805461318190616679565b80601f01602080910402602001604051908101604052809291908181526020018280546131ad90616679565b80156131fa5780601f106131cf576101008083540402835291602001916131fa565b820191906000526020600020905b8154815290600101906020018083116131dd57829003601f168201915b50505050509050600061320b6141dd565b9050600081511415613221578192505050613264565b60008251111561325657808260405160200161323e929190615ce8565b60405160208183030381529060405292505050613264565b61325f846141f4565b925050505b919050565b60008183613277919061658f565b905092915050565b600081600001805490509050919050565b6000818360000180549050116132db576040517f08c379a00000000000000000000000000000000000000000000000000000000081526004016132d290615e70565b60405180910390fd5b826000018281548110613317577f4e487b7100000000000000000000000000000000000000000000000000000000600052603260045260246000fd5b9060005260206000200154905092915050565b60007f80ac58cd000000000000000000000000000000000000000000000000000000007bffffffffffffffffffffffffffffffffffffffffffffffffffffffff1916827bffffffffffffffffffffffffffffffffffffffffffffffffffffffff191614806133f557507f5b5e139f000000000000000000000000000000000000000000000000000000007bffffffffffffffffffffffffffffffffffffffffffffffffffffffff1916827bffffffffffffffffffffffffffffffffffffffffffffffffffffffff1916145b8061340557506134048261429b565b5b9050919050565b600061341e836000018360001b6139bb565b905092915050565b6000613438836000018360001b613b39565b905092915050565b6000806135ce8473ffffffffffffffffffffffffffffffffffffffff166370a08231876040518263ffffffff1660e01b815260040161347f9190615d21565b60206040518083038186803b15801561349757600080fd5b505afa1580156134ab573d6000803e3d6000fd5b505050506040513d601f19601f820116820180604052508101906134cf91906155c2565b6135c08673ffffffffffffffffffffffffffffffffffffffff1663dd62ed3e89306040518363ffffffff1660e01b815260040161350d929190615d3c565b60206040518083038186803b15801561352557600080fd5b505afa158015613539573d6000803e3d6000fd5b505050506040513d601f19601f8201168201806040525081019061355d91906155c2565b61016560008b815260200190815260200160002060000160008a73ffffffffffffffffffffffffffffffffffffffff1673ffffffffffffffffffffffffffffffffffffffff1681526020019081526020016000205461430590919063ffffffff16565b61430590919063ffffffff16565b905060008111156136d857828111156135ed5782905060009150613603565b613600818461326990919063ffffffff16565b91505b60008473ffffffffffffffffffffffffffffffffffffffff166323b872dd8730856040518463ffffffff1660e01b815260040161364293929190615d65565b602060405180830381600087803b15801561365c57600080fd5b505af1158015613670573d6000803e3d6000fd5b505050506040513d601f19601f820116820180604052508101906136949190615433565b9050806136d6576040517f08c379a00000000000000000000000000000000000000000000000000000000081526004016136cd90616210565b60405180910390fd5b505b50949350505050565b60006136ef8260000161327f565b9050919050565b60006137058360000183613290565b60001c905092915050565b8273ffffffffffffffffffffffffffffffffffffffff16613730826116c7565b73ffffffffffffffffffffffffffffffffffffffff1614613786576040517f08c379a000000000000000000000000000000000000000000000000000000000815260040161377d906161f0565b60405180910390fd5b600073ffffffffffffffffffffffffffffffffffffffff168273ffffffffffffffffffffffffffffffffffffffff1614156137f6576040517f08c379a00000000000000000000000000000000000000000000000000000000081526004016137ed90615f90565b60405180910390fd5b61380183838361431e565b61380c60008261252a565b6001606860008573ffffffffffffffffffffffffffffffffffffffff1673ffffffffffffffffffffffffffffffffffffffff168152602001908152602001600020600082825461385c919061658f565b925050819055506001606860008473ffffffffffffffffffffffffffffffffffffffff1673ffffffffffffffffffffffffffffffffffffffff16815260200190815260200160002060008282546138b391906164ae565b92505081905550816067600083815260200190815260200160002060006101000a81548173ffffffffffffffffffffffffffffffffffffffff021916908373ffffffffffffffffffffffffffffffffffffffff160217905550808273ffffffffffffffffffffffffffffffffffffffff168473ffffffffffffffffffffffffffffffffffffffff167fddf252ad1be2c89b69c2b068fc378daa952ba7f163c4a11628f55a4df523b3ef60405160405180910390a4505050565b6000818361397a9190616504565b905092915050565b600081836139909190616535565b905092915050565b600080836001016000848152602001908152602001600020541415905092915050565b60008083600101600084815260200190815260200160002054905060008114613b2d5760006001826139ed919061658f565b9050600060018660000180549050613a05919061658f565b90506000866000018281548110613a45577f4e487b7100000000000000000000000000000000000000000000000000000000600052603260045260246000fd5b9060005260206000200154905080876000018481548110613a8f577f4e487b7100000000000000000000000000000000000000000000000000000000600052603260045260246000fd5b9060005260206000200181905550838760010160008381526020019081526020016000208190555086600001805480613af1577f4e487b7100000000000000000000000000000000000000000000000000000000600052603160045260246000fd5b60019003818190600052602060002001600090559055866001016000878152602001908152602001600020600090556001945050505050613b33565b60009150505b92915050565b6000613b458383613998565b613b9e578260000182908060018154018082558091505060019003906000526020600020016000909190919091505582600001805490508360010160008481526020019081526020016000208190555060019050613ba3565b600090505b92915050565b613bb3838361432e565b613bc06000848484614046565b613bff576040517f08c379a0000000000000000000000000000000000000000000000000000000008152600401613bf690615ed0565b60405180910390fd5b505050565b600060019054906101000a900460ff1680613c2a575060008054906101000a900460ff16155b613c69576040517f08c379a0000000000000000000000000000000000000000000000000000000008152600401613c60906160f0565b60405180910390fd5b60008060019054906101000a900460ff161590508015613cb9576001600060016101000a81548160ff02191690831515021790555060016000806101000a81548160ff0219169083151502179055505b8015613cda5760008060016101000a81548160ff0219169083151502179055505b50565b600060019054906101000a900460ff1680613d03575060008054906101000a900460ff16155b613d42576040517f08c379a0000000000000000000000000000000000000000000000000000000008152600401613d39906160f0565b60405180910390fd5b60008060019054906101000a900460ff161590508015613d92576001600060016101000a81548160ff02191690831515021790555060016000806101000a81548160ff0219169083151502179055505b6000613d9c612522565b90508061012f60006101000a81548173ffffffffffffffffffffffffffffffffffffffff021916908373ffffffffffffffffffffffffffffffffffffffff1602179055508073ffffffffffffffffffffffffffffffffffffffff16600073ffffffffffffffffffffffffffffffffffffffff167f8be0079c531659141344cd1fd0a4f28419497f9722a3daafe3b4186f6b6457e060405160405180910390a3508015613e5d5760008060016101000a81548160ff0219169083151502179055505b50565b600060019054906101000a900460ff1680613e86575060008054906101000a900460ff16155b613ec5576040517f08c379a0000000000000000000000000000000000000000000000000000000008152600401613ebc906160f0565b60405180910390fd5b60008060019054906101000a900460ff161590508015613f15576001600060016101000a81548160ff02191690831515021790555060016000806101000a81548160ff0219169083151502179055505b613f1d613c04565b613f256143a4565b613f2d61447d565b8015613f4e5760008060016101000a81548160ff0219169083151502179055505b50565b600060019054906101000a900460ff1680613f77575060008054906101000a900460ff16155b613fb6576040517f08c379a0000000000000000000000000000000000000000000000000000000008152600401613fad906160f0565b60405180910390fd5b60008060019054906101000a900460ff161590508015614006576001600060016101000a81548160ff02191690831515021790555060016000806101000a81548160ff0219169083151502179055505b61400e613c04565b6140166143a4565b6140208383614556565b80156140415760008060016101000a81548160ff0219169083151502179055505b505050565b60006140678473ffffffffffffffffffffffffffffffffffffffff1661465f565b156141d0578373ffffffffffffffffffffffffffffffffffffffff1663150b7a02614090612522565b8786866040518563ffffffff1660e01b81526004016140b29493929190615d9c565b602060405180830381600087803b1580156140cc57600080fd5b505af19250505080156140fd57506040513d601f19601f820116820180604052508101906140fa9190615485565b60015b614180573d806000811461412d576040519150601f19603f3d011682016040523d82523d6000602084013e614132565b606091505b50600081511415614178576040517f08c379a000000000000000000000000000000000000000000000000000000000815260040161416f90615ed0565b60405180910390fd5b805181602001fd5b63150b7a0260e01b7bffffffffffffffffffffffffffffffffffffffffffffffffffffffff1916817bffffffffffffffffffffffffffffffffffffffffffffffffffffffff1916149150506141d5565b600190505b949350505050565b606060405180602001604052806000815250905090565b60606141ff826124b6565b61423e576040517f08c379a000000000000000000000000000000000000000000000000000000000815260040161423590616230565b60405180910390fd5b60006142486141dd565b905060008151116142685760405180602001604052806000815250614293565b8061427284614672565b604051602001614283929190615ce8565b6040516020818303038152906040525b915050919050565b60007f01ffc9a7000000000000000000000000000000000000000000000000000000007bffffffffffffffffffffffffffffffffffffffffffffffffffffffff1916827bffffffffffffffffffffffffffffffffffffffffffffffffffffffff1916149050919050565b60008183106143145781614316565b825b905092915050565b61432983838361481f565b505050565b6143388282614933565b614344816000336125e3565b803373ffffffffffffffffffffffffffffffffffffffff16600073ffffffffffffffffffffffffffffffffffffffff167f8d9ce12bb12e6e3e62f9ef6b9a7250c5c13f95cdb4d832735ce44e2757aa5ae860405160405180910390a45050565b600060019054906101000a900460ff16806143ca575060008054906101000a900460ff16155b614409576040517f08c379a0000000000000000000000000000000000000000000000000000000008152600401614400906160f0565b60405180910390fd5b60008060019054906101000a900460ff161590508015614459576001600060016101000a81548160ff02191690831515021790555060016000806101000a81548160ff0219169083151502179055505b801561447a5760008060016101000a81548160ff0219169083151502179055505b50565b600060019054906101000a900460ff16806144a3575060008054906101000a900460ff16155b6144e2576040517f08c379a00000000000000000000000000000000000000000000000000000000081526004016144d9906160f0565b60405180910390fd5b60008060019054906101000a900460ff161590508015614532576001600060016101000a81548160ff02191690831515021790555060016000806101000a81548160ff0219169083151502179055505b80156145535760008060016101000a81548160ff0219169083151502179055505b50565b600060019054906101000a900460ff168061457c575060008054906101000a900460ff16155b6145bb576040517f08c379a00000000000000000000000000000000000000000000000000000000081526004016145b2906160f0565b60405180910390fd5b60008060019054906101000a900460ff16159050801561460b576001600060016101000a81548160ff02191690831515021790555060016000806101000a81548160ff0219169083151502179055505b8260659080519060200190614621929190614e7e565b508160669080519060200190614638929190614e7e565b50801561465a5760008060016101000a81548160ff0219169083151502179055505b505050565b600080823b905060008111915050919050565b606060008214156146ba576040518060400160405280600181526020017f3000000000000000000000000000000000000000000000000000000000000000815250905061481a565b600082905060005b600082146146ec5780806146d5906166dc565b915050600a826146e59190616504565b91506146c2565b60008167ffffffffffffffff81111561472e577f4e487b7100000000000000000000000000000000000000000000000000000000600052604160045260246000fd5b6040519080825280601f01601f1916602001820160405280156147605781602001600182028036833780820191505090505b5090505b6000851461481357600182614779919061658f565b9150600a856147889190616725565b603061479491906164ae565b60f81b8183815181106147d0577f4e487b7100000000000000000000000000000000000000000000000000000000600052603260045260246000fd5b60200101907effffffffffffffffffffffffffffffffffffffffffffffffffffffffffffff1916908160001a905350600a8561480c9190616504565b9450614764565b8093505050505b919050565b61482a838383614b01565b600073ffffffffffffffffffffffffffffffffffffffff168373ffffffffffffffffffffffffffffffffffffffff16141561486d5761486881614b06565b6148ac565b8173ffffffffffffffffffffffffffffffffffffffff168373ffffffffffffffffffffffffffffffffffffffff16146148ab576148aa8382614b4f565b5b5b600073ffffffffffffffffffffffffffffffffffffffff168273ffffffffffffffffffffffffffffffffffffffff1614156148ef576148ea81614cbc565b61492e565b8273ffffffffffffffffffffffffffffffffffffffff168273ffffffffffffffffffffffffffffffffffffffff161461492d5761492c8282614dff565b5b5b505050565b600073ffffffffffffffffffffffffffffffffffffffff168273ffffffffffffffffffffffffffffffffffffffff1614156149a3576040517f08c379a000000000000000000000000000000000000000000000000000000000815260040161499a90616130565b60405180910390fd5b6149ac816124b6565b156149ec576040517f08c379a00000000000000000000000000000000000000000000000000000000081526004016149e390615f30565b60405180910390fd5b6149f86000838361431e565b6001606860008473ffffffffffffffffffffffffffffffffffffffff1673ffffffffffffffffffffffffffffffffffffffff1681526020019081526020016000206000828254614a4891906164ae565b92505081905550816067600083815260200190815260200160002060006101000a81548173ffffffffffffffffffffffffffffffffffffffff021916908373ffffffffffffffffffffffffffffffffffffffff160217905550808273ffffffffffffffffffffffffffffffffffffffff16600073ffffffffffffffffffffffffffffffffffffffff167fddf252ad1be2c89b69c2b068fc378daa952ba7f163c4a11628f55a4df523b3ef60405160405180910390a45050565b505050565b60cb8054905060cc60008381526020019081526020016000208190555060cb81908060018154018082558091505060019003906000526020600020016000909190919091505550565b60006001614b5c84611779565b614b66919061658f565b9050600060ca6000848152602001908152602001600020549050818114614c4b57600060c960008673ffffffffffffffffffffffffffffffffffffffff1673ffffffffffffffffffffffffffffffffffffffff16815260200190815260200160002060008481526020019081526020016000205490508060c960008773ffffffffffffffffffffffffffffffffffffffff1673ffffffffffffffffffffffffffffffffffffffff1681526020019081526020016000206000848152602001908152602001600020819055508160ca600083815260200190815260200160002081905550505b60ca60008481526020019081526020016000206000905560c960008573ffffffffffffffffffffffffffffffffffffffff1673ffffffffffffffffffffffffffffffffffffffff16815260200190815260200160002060008381526020019081526020016000206000905550505050565b6000600160cb80549050614cd0919061658f565b9050600060cc6000848152602001908152602001600020549050600060cb8381548110614d26577f4e487b7100000000000000000000000000000000000000000000000000000000600052603260045260246000fd5b906000526020600020015490508060cb8381548110614d6e577f4e487b7100000000000000000000000000000000000000000000000000000000600052603260045260246000fd5b90600052602060002001819055508160cc60008381526020019081526020016000208190555060cc60008581526020019081526020016000206000905560cb805480614de3577f4e487b7100000000000000000000000000000000000000000000000000000000600052603160045260246000fd5b6001900381819060005260206000200160009055905550505050565b6000614e0a83611779565b90508160c960008573ffffffffffffffffffffffffffffffffffffffff1673ffffffffffffffffffffffffffffffffffffffff1681526020019081526020016000206000838152602001908152602001600020819055508060ca600084815260200190815260200160002081905550505050565b828054614e8a90616679565b90600052602060002090601f016020900481019282614eac5760008555614ef3565b82601f10614ec557805160ff1916838001178555614ef3565b82800160010185558215614ef3579182015b82811115614ef2578251825591602001919060010190614ed7565b5b509050614f009190614f04565b5090565b5b80821115614f1d576000816000905550600101614f05565b5090565b6000614f34614f2f84616399565b616374565b9050808382526020820190508260005b85811015614f745781518501614f5a888261511f565b845260208401935060208301925050600181019050614f44565b5050509392505050565b6000614f91614f8c846163c5565b616374565b905082815260208101848484011115614fa957600080fd5b614fb4848285616637565b509392505050565b6000614fcf614fca846163f6565b616374565b905082815260208101848484011115614fe757600080fd5b614ff2848285616637565b509392505050565b600061500d615008846163f6565b616374565b90508281526020810184848401111561502557600080fd5b615030848285616646565b509392505050565b600081359050615047816172b0565b92915050565b600082601f83011261505e57600080fd5b815161506e848260208601614f21565b91505092915050565b600081359050615086816172c7565b92915050565b60008151905061509b816172c7565b92915050565b6000813590506150b0816172de565b92915050565b6000815190506150c5816172de565b92915050565b600082601f8301126150dc57600080fd5b81356150ec848260208601614f7e565b91505092915050565b600082601f83011261510657600080fd5b8135615116848260208601614fbc565b91505092915050565b600082601f83011261513057600080fd5b8151615140848260208601614ffa565b91505092915050565b60006080828403121561515b57600080fd5b6151656080616374565b9050600061517584828501615038565b600083015250602061518984828501615221565b602083015250604061519d84828501615221565b60408301525060606151b184828501615221565b60608301525092915050565b6000604082840312156151cf57600080fd5b6151d96040616374565b905060006151e984828501615038565b600083015250602082013567ffffffffffffffff81111561520957600080fd5b615215848285016150f5565b60208301525092915050565b600081359050615230816172f5565b92915050565b600081519050615245816172f5565b92915050565b60006020828403121561525d57600080fd5b600061526b84828501615038565b91505092915050565b6000806040838503121561528757600080fd5b600061529585828601615038565b92505060206152a685828601615038565b9150509250929050565b6000806000606084860312156152c557600080fd5b60006152d386828701615038565b93505060206152e486828701615038565b92505060406152f586828701615221565b9150509250925092565b6000806000806080858703121561531557600080fd5b600061532387828801615038565b945050602061533487828801615038565b935050604061534587828801615221565b925050606085013567ffffffffffffffff81111561536257600080fd5b61536e878288016150cb565b91505092959194509250565b6000806040838503121561538d57600080fd5b600061539b85828601615038565b92505060206153ac85828601615077565b9150509250929050565b600080604083850312156153c957600080fd5b60006153d785828601615038565b92505060206153e885828601615221565b9150509250929050565b60006020828403121561540457600080fd5b600082015167ffffffffffffffff81111561541e57600080fd5b61542a8482850161504d565b91505092915050565b60006020828403121561544557600080fd5b60006154538482850161508c565b91505092915050565b60006020828403121561546e57600080fd5b600061547c848285016150a1565b91505092915050565b60006020828403121561549757600080fd5b60006154a5848285016150b6565b91505092915050565b6000806000606084860312156154c357600080fd5b600084013567ffffffffffffffff8111156154dd57600080fd5b6154e9868287016150f5565b935050602084013567ffffffffffffffff81111561550657600080fd5b615512868287016150f5565b925050604084013567ffffffffffffffff81111561552f57600080fd5b61553b868287016151bd565b9150509250925092565b60008060a0838503121561555857600080fd5b600083013567ffffffffffffffff81111561557257600080fd5b61557e858286016150f5565b925050602061558f85828601615149565b9150509250929050565b6000602082840312156155ab57600080fd5b60006155b984828501615221565b91505092915050565b6000602082840312156155d457600080fd5b60006155e284828501615236565b91505092915050565b600080604083850312156155fe57600080fd5b600061560c85828601615221565b925050602061561d85828601615221565b9150509250929050565b60006156338383615cb3565b60208301905092915050565b615648816165c3565b82525050565b600061565982616437565b6156638185616465565b935061566e83616427565b8060005b8381101561569f5781516156868882615627565b975061569183616458565b925050600181019050615672565b5085935050505092915050565b6156b5816165d5565b82525050565b60006156c682616442565b6156d08185616476565b93506156e0818560208601616646565b6156e981616812565b840191505092915050565b60006156ff8261644d565b6157098185616492565b9350615719818560208601616646565b61572281616812565b840191505092915050565b60006157388261644d565b61574281856164a3565b9350615752818560208601616646565b80840191505092915050565b600061576b602283616492565b915061577682616823565b604082019050919050565b600061578e603183616492565b915061579982616872565b604082019050919050565b60006157b1602b83616492565b91506157bc826168c1565b604082019050919050565b60006157d4603283616492565b91506157df82616910565b604082019050919050565b60006157f7602183616492565b91506158028261695f565b604082019050919050565b600061581a602683616492565b9150615825826169ae565b604082019050919050565b600061583d601c83616492565b9150615848826169fd565b602082019050919050565b6000615860601b83616492565b915061586b82616a26565b602082019050919050565b6000615883602a83616492565b915061588e82616a4f565b604082019050919050565b60006158a6602483616492565b91506158b182616a9e565b604082019050919050565b60006158c9601983616492565b91506158d482616aed565b602082019050919050565b60006158ec602283616492565b91506158f782616b16565b604082019050919050565b600061590f602c83616492565b915061591a82616b65565b604082019050919050565b6000615932602183616492565b915061593d82616bb4565b604082019050919050565b6000615955603383616492565b915061596082616c03565b604082019050919050565b6000615978603883616492565b915061598382616c52565b604082019050919050565b600061599b602a83616492565b91506159a682616ca1565b604082019050919050565b60006159be602983616492565b91506159c982616cf0565b604082019050919050565b60006159e1602e83616492565b91506159ec82616d3f565b604082019050919050565b6000615a04602283616492565b9150615a0f82616d8e565b604082019050919050565b6000615a27602e83616492565b9150615a3282616ddd565b604082019050919050565b6000615a4a601d83616492565b9150615a5582616e2c565b602082019050919050565b6000615a6d602083616492565b9150615a7882616e55565b602082019050919050565b6000615a90603183616492565b9150615a9b82616e7e565b604082019050919050565b6000615ab3602c83616492565b9150615abe82616ecd565b604082019050919050565b6000615ad6602383616492565b9150615ae182616f1c565b604082019050919050565b6000615af9602083616492565b9150615b0482616f6b565b602082019050919050565b6000615b1c602883616492565b9150615b2782616f94565b604082019050919050565b6000615b3f602983616492565b9150615b4a82616fe3565b604082019050919050565b6000615b62602583616492565b9150615b6d82617032565b604082019050919050565b6000615b85602f83616492565b9150615b9082617081565b604082019050919050565b6000615ba8602183616492565b9150615bb3826170d0565b604082019050919050565b6000615bcb600083616487565b9150615bd68261711f565b600082019050919050565b6000615bee603183616492565b9150615bf982617122565b604082019050919050565b6000615c11602c83616492565b9150615c1c82617171565b604082019050919050565b6000615c34602483616492565b9150615c3f826171c0565b604082019050919050565b6000615c57602a83616492565b9150615c628261720f565b604082019050919050565b6000615c7a601f83616492565b9150615c858261725e565b602082019050919050565b6000615c9d601683616492565b9150615ca882617287565b602082019050919050565b615cbc8161662d565b82525050565b615ccb8161662d565b82525050565b6000615cdd828461572d565b915081905092915050565b6000615cf4828561572d565b9150615d00828461572d565b91508190509392505050565b6000615d1782615bbe565b9150819050919050565b6000602082019050615d36600083018461563f565b92915050565b6000604082019050615d51600083018561563f565b615d5e602083018461563f565b9392505050565b6000606082019050615d7a600083018661563f565b615d87602083018561563f565b615d946040830184615cc2565b949350505050565b6000608082019050615db1600083018761563f565b615dbe602083018661563f565b615dcb6040830185615cc2565b8181036060830152615ddd81846156bb565b905095945050505050565b6000604082019050615dfd600083018561563f565b615e0a6020830184615cc2565b9392505050565b60006020820190508181036000830152615e2b818461564e565b905092915050565b6000602082019050615e4860008301846156ac565b92915050565b60006020820190508181036000830152615e6881846156f4565b905092915050565b60006020820190508181036000830152615e898161575e565b9050919050565b60006020820190508181036000830152615ea981615781565b9050919050565b60006020820190508181036000830152615ec9816157a4565b9050919050565b60006020820190508181036000830152615ee9816157c7565b9050919050565b60006020820190508181036000830152615f09816157ea565b9050919050565b60006020820190508181036000830152615f298161580d565b9050919050565b60006020820190508181036000830152615f4981615830565b9050919050565b60006020820190508181036000830152615f6981615853565b9050919050565b60006020820190508181036000830152615f8981615876565b9050919050565b60006020820190508181036000830152615fa981615899565b9050919050565b60006020820190508181036000830152615fc9816158bc565b9050919050565b60006020820190508181036000830152615fe9816158df565b9050919050565b6000602082019050818103600083015261600981615902565b9050919050565b6000602082019050818103600083015261602981615925565b9050919050565b6000602082019050818103600083015261604981615948565b9050919050565b600060208201905081810360008301526160698161596b565b9050919050565b600060208201905081810360008301526160898161598e565b9050919050565b600060208201905081810360008301526160a9816159b1565b9050919050565b600060208201905081810360008301526160c9816159d4565b9050919050565b600060208201905081810360008301526160e9816159f7565b9050919050565b6000602082019050818103600083015261610981615a1a565b9050919050565b6000602082019050818103600083015261612981615a3d565b9050919050565b6000602082019050818103600083015261614981615a60565b9050919050565b6000602082019050818103600083015261616981615a83565b9050919050565b6000602082019050818103600083015261618981615aa6565b9050919050565b600060208201905081810360008301526161a981615ac9565b9050919050565b600060208201905081810360008301526161c981615aec565b9050919050565b600060208201905081810360008301526161e981615b0f565b9050919050565b6000602082019050818103600083015261620981615b32565b9050919050565b6000602082019050818103600083015261622981615b55565b9050919050565b6000602082019050818103600083015261624981615b78565b9050919050565b6000602082019050818103600083015261626981615b9b565b9050919050565b6000602082019050818103600083015261628981615be1565b9050919050565b600060208201905081810360008301526162a981615c04565b9050919050565b600060208201905081810360008301526162c981615c27565b9050919050565b600060208201905081810360008301526162e981615c4a565b9050919050565b6000602082019050818103600083015261630981615c6d565b9050919050565b6000602082019050818103600083015261632981615c90565b9050919050565b60006020820190506163456000830184615cc2565b92915050565b60006040820190506163606000830185615cc2565b61636d6020830184615cc2565b9392505050565b600061637e61638f565b905061638a82826166ab565b919050565b6000604051905090565b600067ffffffffffffffff8211156163b4576163b36167e3565b5b602082029050602081019050919050565b600067ffffffffffffffff8211156163e0576163df6167e3565b5b6163e982616812565b9050602081019050919050565b600067ffffffffffffffff821115616411576164106167e3565b5b61641a82616812565b9050602081019050919050565b6000819050602082019050919050565b600081519050919050565b600081519050919050565b600081519050919050565b6000602082019050919050565b600082825260208201905092915050565b600082825260208201905092915050565b600081905092915050565b600082825260208201905092915050565b600081905092915050565b60006164b98261662d565b91506164c48361662d565b9250827fffffffffffffffffffffffffffffffffffffffffffffffffffffffffffffffff038211156164f9576164f8616756565b5b828201905092915050565b600061650f8261662d565b915061651a8361662d565b92508261652a57616529616785565b5b828204905092915050565b60006165408261662d565b915061654b8361662d565b9250817fffffffffffffffffffffffffffffffffffffffffffffffffffffffffffffffff048311821515161561658457616583616756565b5b828202905092915050565b600061659a8261662d565b91506165a58361662d565b9250828210156165b8576165b7616756565b5b828203905092915050565b60006165ce8261660d565b9050919050565b60008115159050919050565b60007fffffffff0000000000000000000000000000000000000000000000000000000082169050919050565b600073ffffffffffffffffffffffffffffffffffffffff82169050919050565b6000819050919050565b82818337600083830152505050565b60005b83811015616664578082015181840152602081019050616649565b83811115616673576000848401525b50505050565b6000600282049050600182168061669157607f821691505b602082108114156166a5576166a46167b4565b5b50919050565b6166b482616812565b810181811067ffffffffffffffff821117156166d3576166d26167e3565b5b80604052505050565b60006166e78261662d565b91507fffffffffffffffffffffffffffffffffffffffffffffffffffffffffffffffff82141561671a57616719616756565b5b600182019050919050565b60006167308261662d565b915061673b8361662d565b92508261674b5761674a616785565b5b828206905092915050565b7f4e487b7100000000000000000000000000000000000000000000000000000000600052601160045260246000fd5b7f4e487b7100000000000000000000000000000000000000000000000000000000600052601260045260246000fd5b7f4e487b7100000000000000000000000000000000000000000000000000000000600052602260045260246000fd5b7f4e487b7100000000000000000000000000000000000000000000000000000000600052604160045260246000fd5b6000601f19601f8301169050919050565b7f456e756d657261626c655365743a20696e646578206f7574206f6620626f756e60008201527f6473000000000000000000000000000000000000000000000000000000000000602082015250565b7f4e4654417574686f72736869703a20617574686f7220717565727920666f722060008201527f6e6f6e6578697374656e7420746f6b656e000000000000000000000000000000602082015250565b7f455243373231456e756d657261626c653a206f776e657220696e646578206f7560008201527f74206f6620626f756e6473000000000000000000000000000000000000000000602082015250565b7f4552433732313a207472616e7366657220746f206e6f6e20455243373231526560008201527f63656976657220696d706c656d656e7465720000000000000000000000000000602082015250565b7f4e46543a2073656e646572206973206e6f74206f776e6572206f6620746f6b6560008201527f6e00000000000000000000000000000000000000000000000000000000000000602082015250565b7f4f776e61626c653a206e6577206f776e657220697320746865207a65726f206160008201527f6464726573730000000000000000000000000000000000000000000000000000602082015250565b7f4552433732313a20746f6b656e20616c7265616479206d696e74656400000000600082015250565b7f4e46543a20546f6b656e20646f6573206e6f7420696e2073616c650000000000600082015250565b7f4e46543a204661696c6564207768656e2073656e64206261636b20636f696e7360008201527f20746f2063616c6c657200000000000000000000000000000000000000000000602082015250565b7f4552433732313a207472616e7366657220746f20746865207a65726f2061646460008201527f7265737300000000000000000000000000000000000000000000000000000000602082015250565b7f4552433732313a20617070726f766520746f2063616c6c657200000000000000600082015250565b7f4e46543a20546f6b656e20616464726573732063616e206e6f74206265207a6560008201527f726f000000000000000000000000000000000000000000000000000000000000602082015250565b7f4552433732313a206f70657261746f7220717565727920666f72206e6f6e657860008201527f697374656e7420746f6b656e0000000000000000000000000000000000000000602082015250565b7f53656e64657220686173206e6f7420696e2061636365737369626c65204c697360008201527f7400000000000000000000000000000000000000000000000000000000000000602082015250565b7f4e4654417574686f72736869703a207472616e73666572417574686f7273686960008201527f7020746f2063757272656e7420617574686f7200000000000000000000000000602082015250565b7f4552433732313a20617070726f76652063616c6c6572206973206e6f74206f7760008201527f6e6572206e6f7220617070726f76656420666f7220616c6c0000000000000000602082015250565b7f4552433732313a2062616c616e636520717565727920666f7220746865207a6560008201527f726f206164647265737300000000000000000000000000000000000000000000602082015250565b7f4552433732313a206f776e657220717565727920666f72206e6f6e657869737460008201527f656e7420746f6b656e0000000000000000000000000000000000000000000000602082015250565b7f45524337323155524953746f726167653a2055524920736574206f66206e6f6e60008201527f6578697374656e7420746f6b656e000000000000000000000000000000000000602082015250565b7f4e46543a2054686520636f696e732073656e7420617265206e6f7420656e6f7560008201527f6768000000000000000000000000000000000000000000000000000000000000602082015250565b7f496e697469616c697a61626c653a20636f6e747261637420697320616c72656160008201527f647920696e697469616c697a6564000000000000000000000000000000000000602082015250565b7f4e46543a20546865726520617265206e6f206c6f737420746f6b656e73000000600082015250565b7f4552433732313a206d696e7420746f20746865207a65726f2061646472657373600082015250565b7f45524337323155524953746f726167653a2055524920717565727920666f722060008201527f6e6f6e6578697374656e7420746f6b656e000000000000000000000000000000602082015250565b7f4552433732313a20617070726f76656420717565727920666f72206e6f6e657860008201527f697374656e7420746f6b656e0000000000000000000000000000000000000000602082015250565b7f4e4654417574686f72736869703a2063616c6c6572206973206e6f742061757460008201527f686f720000000000000000000000000000000000000000000000000000000000602082015250565b7f4f776e61626c653a2063616c6c6572206973206e6f7420746865206f776e6572600082015250565b7f4e46543a20617574686f72277320636f6d6d697373696f6e2073686f756c642060008201527f6265207061796564000000000000000000000000000000000000000000000000602082015250565b7f4552433732313a207472616e73666572206f6620746f6b656e2074686174206960008201527f73206e6f74206f776e0000000000000000000000000000000000000000000000602082015250565b7f4e46543a204661696c6564207768656e20277472616e7366657246726f6d272060008201527f66756e6473000000000000000000000000000000000000000000000000000000602082015250565b7f4552433732314d657461646174613a2055524920717565727920666f72206e6f60008201527f6e6578697374656e7420746f6b656e0000000000000000000000000000000000602082015250565b7f4552433732313a20617070726f76616c20746f2063757272656e74206f776e6560008201527f7200000000000000000000000000000000000000000000000000000000000000602082015250565b50565b7f4552433732313a207472616e736665722063616c6c6572206973206e6f74206f60008201527f776e6572206e6f7220617070726f766564000000000000000000000000000000602082015250565b7f455243373231456e756d657261626c653a20676c6f62616c20696e646578206f60008201527f7574206f6620626f756e64730000000000000000000000000000000000000000602082015250565b7f4e46543a204661696c6564207768656e2073656e6420636f696e7320746f206f60008201527f776e657200000000000000000000000000000000000000000000000000000000602082015250565b7f4e46543a204661696c6564207768656e20277472616e73666572272066756e6460008201527f7320746f206f776e657200000000000000000000000000000000000000000000602082015250565b7f5265656e7472616e637947756172643a207265656e7472616e742063616c6c00600082015250565b7f4e46543a204e6f6e6578697374656e7420746f6b656e00000000000000000000600082015250565b6172b9816165c3565b81146172c457600080fd5b50565b6172d0816165d5565b81146172db57600080fd5b50565b6172e7816165e1565b81146172f257600080fd5b50565b6172fe8161662d565b811461730957600080fd5b5056fea2646970667358221220d0b435f0263a9d634d84f3a87e640a8be58a86d7be961884da9328f8f1feadfb64736f6c63430008030033",
  "immutableReferences": {},
  "source": "// SPDX-License-Identifier: MIT\r\npragma solidity ^0.8.0;\r\n\r\nimport \"@openzeppelin/contracts-upgradeable/token/ERC20/IERC20Upgradeable.sol\";\r\nimport \"@openzeppelin/contracts-upgradeable/utils/CountersUpgradeable.sol\";\r\n\r\nimport \"@openzeppelin/contracts-upgradeable/utils/math/SafeMathUpgradeable.sol\";\r\nimport \"@openzeppelin/contracts-upgradeable/utils/math/MathUpgradeable.sol\";\r\n\r\nimport \"@openzeppelin/contracts-upgradeable/security/ReentrancyGuardUpgradeable.sol\";\r\nimport \"@openzeppelin/contracts-upgradeable/access/OwnableUpgradeable.sol\";\r\n\r\nimport \"./interfaces/ICommunity.sol\";\r\n\r\nimport \"./NFTStruct.sol\";\r\nimport \"./NFTAuthorship.sol\";\r\n\r\ncontract NFT is NFTStruct, NFTAuthorship, ReentrancyGuardUpgradeable, OwnableUpgradeable {\r\n    using CountersUpgradeable for CountersUpgradeable.Counter;\r\n    using SafeMathUpgradeable for uint256;\r\n    using MathUpgradeable for uint256;\r\n    using EnumerableSetUpgradeable for EnumerableSetUpgradeable.AddressSet;\r\n    CountersUpgradeable.Counter private _tokenIds;\r\n    \r\n    CommunitySettings communitySettings;\r\n\r\n    // Mapping from token ID to commission\r\n    mapping (uint256 => CommissionSettings) private _commissions;\r\n    \r\n    mapping (uint256 => SalesData) private _salesData;\r\n    \r\n    event NewTokenAppear(address author, uint256 tokenId);\r\n    event TokenAddedToSale(uint256 tokenId, uint256 amount);\r\n    event TokenRemovedFromSale(uint256 tokenId);\r\n    \r\n    modifier canRecord(string memory communityRole) {\r\n        bool s = _canRecord(communityRole);\r\n        \r\n        require(s == true, \"Sender has not in accessible List\");\r\n        _;\r\n    }\r\n    \r\n    modifier onlyNFTOwner(uint256 tokenId) {\r\n        require(_msgSender() == ownerOf(tokenId), \"NFT: sender is not owner of token\");\r\n        _;\r\n    }\r\n    modifier onlySale(uint256 tokenId) {\r\n        require(_salesData[tokenId].isSale == true, \"NFT: Token does not in sale\");\r\n        _;\r\n    }\r\n    \r\n    function initialize(\r\n        string memory name,\r\n        string memory symbol,\r\n        CommunitySettings memory communitySettings_\r\n    ) public initializer {\r\n        __Ownable_init();\r\n        __NFTAuthorship_init(name, symbol);\r\n        communitySettings = communitySettings_;\r\n    }\r\n    \r\n   \r\n    /**\r\n     * @param URI Toke URI\r\n     * @param commissionParams commission will be send to author when token's owner sell to someone it\r\n     */\r\n    function create(\r\n        string memory URI,\r\n        CommissionParams memory commissionParams\r\n    ) \r\n        public \r\n        canRecord(communitySettings.roleMint) \r\n        virtual  \r\n    {\r\n\r\n        uint256 tokenId = _tokenIds.current();\r\n        \r\n        emit NewTokenAppear(_msgSender(), tokenId);\r\n        \r\n        // We cannot just use balanceOf or totalSupply to create the new tokenId because tokens\r\n        // can be burned (destroyed), so we need a separate counter.\r\n        _safeMint(msg.sender, tokenId);\r\n        \r\n        _setTokenURI(tokenId, URI);\r\n        \r\n        require(commissionParams.token != address(0), \"NFT: Token address can not be zero\");\r\n        \r\n        _commissions[tokenId].token = commissionParams.token;\r\n        _commissions[tokenId].amount = commissionParams.amount;\r\n        _commissions[tokenId].multiply = (commissionParams.multiply == 0 ? 10000 : commissionParams.multiply);\r\n        _commissions[tokenId].intervalSeconds = commissionParams.intervalSeconds;\r\n        _commissions[tokenId].createdTs = block.timestamp;\r\n        \r\n\r\n        _tokenIds.increment();\r\n    }\r\n    \r\n    function getCommission(\r\n        uint256 tokenId\r\n    ) \r\n        public\r\n        view\r\n        returns(address t, uint256 r)\r\n    {\r\n        (t, r) = _getCommission(tokenId);\r\n    }\r\n    \r\n    function claimLostToken(\r\n        address erc20address\r\n    ) \r\n        public \r\n        onlyOwner \r\n    {\r\n        uint256 funds = IERC20Upgradeable(erc20address).balanceOf(address(this));\r\n        require(funds > 0, \"NFT: There are no lost tokens\");\r\n            \r\n        bool success = IERC20Upgradeable(erc20address).transfer(_msgSender(), funds);\r\n        require(success, \"NFT: Failed when 'transferFrom' funds\");\r\n    }\r\n    \r\n    function listForSale(\r\n        uint256 tokenId,\r\n        uint256 amount\r\n    )\r\n        public \r\n        onlyNFTOwner(tokenId)\r\n    {\r\n        _salesData[tokenId].amount = amount;\r\n        _salesData[tokenId].isSale = true;\r\n        emit TokenAddedToSale(tokenId, amount);\r\n    }\r\n    \r\n    function removeFromSale(\r\n        uint256 tokenId\r\n    )\r\n        public \r\n        onlyNFTOwner(tokenId)\r\n    {\r\n        _salesData[tokenId].isSale = false;    \r\n        \r\n        emit TokenRemovedFromSale(tokenId);\r\n    }\r\n    \r\n    function buy(\r\n        uint256 tokenId\r\n    )\r\n        public \r\n        payable\r\n        nonReentrant\r\n        onlySale(tokenId)\r\n    {\r\n        require(_exists(tokenId), \"NFT: Nonexistent token\");\r\n        //require(_commissionsPayed[tokenId] == false, \"NFT: Commission already payed\");\r\n        \r\n        bool success;\r\n        uint256 funds = msg.value;\r\n        require(funds >= _salesData[tokenId].amount, \"NFT: The coins sent are not enough\");\r\n        \r\n        // Refund\r\n        uint256 refund = (funds).sub(_salesData[tokenId].amount);\r\n        if (refund > 0) {\r\n            (success, ) = (_msgSender()).call{value: refund}(\"\");    \r\n            require(success, \"NFT: Failed when send back coins to caller\");\r\n        }\r\n        \r\n        address owner = ownerOf(tokenId);\r\n        _transfer(owner, _msgSender(), tokenId);\r\n        \r\n        (success, ) = (owner).call{value: _salesData[tokenId].amount}(\"\");    \r\n        require(success, \"NFT: Failed when send coins to owner\");\r\n        \r\n        removeFromSale(tokenId);\r\n        \r\n    }\r\n    \r\n    function offerToPayCommission(\r\n        uint256 tokenId, \r\n        uint256 amount\r\n    )\r\n        public \r\n    {\r\n        require(_exists(tokenId), \"NFT: Nonexistent token\");\r\n        if (amount == 0) {\r\n            if (_salesData[tokenId].offerAddresses.contains(_msgSender())) {\r\n                _salesData[tokenId].offerAddresses.remove(_msgSender());\r\n                delete _salesData[tokenId].offerPayAmount[_msgSender()];\r\n            }\r\n        } else {\r\n            _salesData[tokenId].offerPayAmount[_msgSender()] = amount;\r\n            _salesData[tokenId].offerAddresses.add(_msgSender());\r\n        }\r\n\r\n    }\r\n    \r\n    function _getCommission(\r\n        uint256 tokenId\r\n    ) \r\n        internal \r\n        virtual\r\n        view\r\n        returns(address t, uint256 r)\r\n    {\r\n        \r\n        //initialCommission\r\n        r = _commissions[tokenId].amount;\r\n        t = _commissions[tokenId].token;\r\n        if (r == 0) {\r\n            \r\n        } else {\r\n            if (_commissions[tokenId].multiply == 10000) {\r\n                // left initial commission\r\n            } else {\r\n                uint256 secondsPass = block.timestamp.sub(_commissions[tokenId].createdTs);\r\n        \r\n                uint256 periodTimes = secondsPass.div(_commissions[tokenId].intervalSeconds);\r\n                    \r\n                for(uint256 i = 0; i < periodTimes; i++) {\r\n                    r = r.mul(_commissions[tokenId].multiply).div(10000);\r\n                }\r\n            \r\n            }\r\n        }\r\n        \r\n    }\r\n    \r\n    \r\n    function _transfer(\r\n        address from, \r\n        address to, \r\n        uint256 tokenId\r\n    ) \r\n        internal \r\n        override \r\n    {\r\n        address author = authorOf(tokenId);\r\n        address owner = ownerOf(tokenId);\r\n        \r\n        address commissionToken;\r\n        uint256 commissionAmount;\r\n        (commissionToken, commissionAmount) = _getCommission(tokenId);\r\n        \r\n        if (author == address(0) || commissionAmount == 0) {\r\n            \r\n        } else {\r\n            \r\n            uint256 commissionAmountLeft = commissionAmount;\r\n            if (_salesData[tokenId].offerAddresses.contains(owner)) {\r\n                commissionAmountLeft = _transferPay(tokenId, owner, commissionToken, commissionAmountLeft);\r\n            }\r\n            \r\n            uint256 len = _salesData[tokenId].offerAddresses.length();\r\n            uint256 tmpI;\r\n            for (uint256 i = 0; i < len; i++) {\r\n                tmpI = commissionAmountLeft;\r\n                if (tmpI > 0) {\r\n                    commissionAmountLeft  = _transferPay(tokenId, _salesData[tokenId].offerAddresses.at(i), commissionToken, tmpI);\r\n                }\r\n                if (commissionAmountLeft == 0) {\r\n                    break;\r\n                }\r\n            }\r\n            \r\n            require(commissionAmountLeft == 0, \"NFT: author's commission should be payed\");\r\n            \r\n            // 'transfer' commission to the author\r\n            bool success = IERC20Upgradeable(commissionToken).transfer(author, commissionAmount);\r\n            require(success, \"NFT: Failed when 'transfer' funds to owner\");\r\n        \r\n        }\r\n        // then usual transfer as expected\r\n        super._transfer(from, to, tokenId);\r\n        \r\n    }\r\n\r\n    function _transferPay(\r\n        uint256 tokenId,\r\n        address addr,\r\n        address commissionToken,\r\n        uint256 commissionAmountNeedToPay\r\n    ) \r\n        private\r\n        returns(uint256 commissionAmountLeft)\r\n    {\r\n        uint256 minAmount;\r\n        \r\n        minAmount = (_salesData[tokenId].offerPayAmount[addr]).min(IERC20Upgradeable(commissionToken).allowance(addr, address(this))).min(IERC20Upgradeable(commissionToken).balanceOf(addr));\r\n        if (minAmount > 0) {\r\n            if (minAmount > commissionAmountNeedToPay) {\r\n                minAmount = commissionAmountNeedToPay;\r\n                commissionAmountLeft = 0;\r\n            } else {\r\n                commissionAmountLeft = commissionAmountNeedToPay.sub(minAmount);\r\n            }\r\n            bool success = IERC20Upgradeable(commissionToken).transferFrom(addr, address(this), minAmount);\r\n            require(success, \"NFT: Failed when 'transferFrom' funds\");\r\n        }\r\n        \r\n    }\r\n\r\n    function _canRecord(\r\n        string memory roleName\r\n    ) \r\n        private \r\n        view \r\n        returns(bool s)\r\n    {\r\n        s = false;\r\n        if (communitySettings.addr == address(0)) {\r\n            // if the community address set to zero then we must skip the check\r\n            s = true;\r\n        } else {\r\n            string[] memory roles = ICommunity(communitySettings.addr).getRoles(msg.sender);\r\n            for (uint256 i=0; i< roles.length; i++) {\r\n                \r\n                if (keccak256(abi.encodePacked(roleName)) == keccak256(abi.encodePacked(roles[i]))) {\r\n                    s = true;\r\n                }\r\n            }\r\n        }\r\n\r\n    }\r\n   \r\n}",
  "sourcePath": "g:/_projects/intercoin/NFT/contracts/NFT.sol",
  "compiler": {
    "name": "solc",
    "version": "0.8.3+commit.8d00100c.Emscripten.clang"
  },
  "schemaVersion": "3.4.1",
  "updatedAt": "2021-06-22T14:43:24.056Z",
  "devdoc": {
    "kind": "dev",
    "methods": {
      "approve(address,uint256)": {
        "details": "See {IERC721-approve}."
      },
      "balanceOf(address)": {
        "details": "See {IERC721-balanceOf}."
      },
      "create(string,(address,uint256,uint256,uint256))": {
        "params": {
          "URI": "Toke URI",
          "commissionParams": "commission will be send to author when token's owner sell to someone it"
        }
      },
      "getApproved(uint256)": {
        "details": "See {IERC721-getApproved}."
      },
      "isApprovedForAll(address,address)": {
        "details": "See {IERC721-isApprovedForAll}."
      },
      "name()": {
        "details": "See {IERC721Metadata-name}."
      },
      "owner()": {
        "details": "Returns the address of the current owner."
      },
      "ownerOf(uint256)": {
        "details": "See {IERC721-ownerOf}."
      },
      "renounceOwnership()": {
        "details": "Leaves the contract without owner. It will not be possible to call `onlyOwner` functions anymore. Can only be called by the current owner. NOTE: Renouncing ownership will leave the contract without an owner, thereby removing any functionality that is only available to the owner."
      },
      "safeTransferFrom(address,address,uint256)": {
        "details": "See {IERC721-safeTransferFrom}."
      },
      "safeTransferFrom(address,address,uint256,bytes)": {
        "details": "See {IERC721-safeTransferFrom}."
      },
      "setApprovalForAll(address,bool)": {
        "details": "See {IERC721-setApprovalForAll}."
      },
      "supportsInterface(bytes4)": {
        "details": "See {IERC165-supportsInterface}."
      },
      "symbol()": {
        "details": "See {IERC721Metadata-symbol}."
      },
      "tokenByIndex(uint256)": {
        "details": "See {IERC721Enumerable-tokenByIndex}."
      },
      "tokenOfOwnerByIndex(address,uint256)": {
        "details": "See {IERC721Enumerable-tokenOfOwnerByIndex}."
      },
      "tokensByAuthor(address)": {
        "params": {
          "author": "author's address"
        }
      },
      "totalSupply()": {
        "details": "See {IERC721Enumerable-totalSupply}."
      },
      "transferFrom(address,address,uint256)": {
        "details": "See {IERC721-transferFrom}."
      },
      "transferOwnership(address)": {
        "details": "Transfers ownership of the contract to a new account (`newOwner`). Can only be called by the current owner."
      }
    },
    "version": 1
  },
  "userdoc": {
    "kind": "user",
    "methods": {
      "tokensByAuthor(address)": {
        "notice": "can see all the tokens that an author has."
      }
    },
    "version": 1
  }
}